:01000000FF00
:01000100FFFF
:010002004EAF
:010003004EAE
:010004004EAD
:010005004EAC
:010006004EAB
:010007004EAA
:010008004EA9
:010009004EA8
:01000A004EA7
:01000B004EA6
:01000C004EA5
:01000D004EA4
:01000E004EA3
:01000F004EA2
:010010004EA1
:010011004EA0
:010012004E9F
:010013004E9E
:010014004E9D
:010015004E9C
:010016004E9B
:010017004E9A
:010018004E99
:0100190032B4
:01001A002EB7
:01001B0034B0
:01001C0034AF
:01001D0034AE
:01001E0036AB
:01001F0036AA
:0100200037A8
:0100210037A7
:0100220037A6
:0100230037A5
:0100240037A4
:0100250037A3
:0100260038A1
:0100270038A0
:01002800389F
:01002900389E
:01002A00389D
:01002B00389C
:01002C00389B
:01002D00389A
:01002E003899
:01002F003898
:010030003897
:010031003896
:010032003895
:010033003894
:010034003893
:010035003892
:010036003891
:010037003890
:01003800388F
:01003900388E
:01003A00388D
:01003B00388C
:01003C00378C
:01003D00378B
:01003E00378A
:01003F00368A
:010040003689
:010041003688
:010042003687
:010043003686
:010044003685
:010045003585
:010046003683
:010047003682
:010048003780
:01004900377F
:01004A00377E
:01004B00377D
:01004C00377C
:01004D00377B
:01004E00377A
:01004F003779
:010050003778
:010051003777
:010052003776
:010053003874
:010054003873
:010055003872
:010056003871
:010057003870
:01005800386F
:01005900386E
:01005A00386D
:01005B00386C
:01005C00386B
:01005D00386A
:01005E003869
:01005F003868
:010060003867
:010061003866
:010062003865
:010063003864
:010064003863
:010065003862
:010066003861
:010067003860
:01006800385F
:01006900385E
:01006A00385D
:01006B00385C
:01006C00385B
:01006D00375B
:01006E00375A
:01006F003759
:010070003758
:010071003757
:010072003756
:010073003755
:010074003754
:010075003753
:010076003752
:010077003751
:010078003750
:01007900374F
:01007A00374E
:01007B00374D
:01007C00374C
:01007D00374B
:01007E00374A
:01007F003749
:010080003748
:010081003747
:010082003746
:010083003646
:010084003645
:010085003644
:010086003643
:010087003642
:010088003641
:010089003640
:01008A00363F
:01008B00353F
:01008C00353E
:01008D00353D
:01008E00353C
:01008F00353B
:01009000343B
:01009100333B
:01009200333A
:010093003339
:010094003338
:010095003337
:010096003336
:010097003335
:010098003334
:010099003333
:01009A003332
:01009B003331
:01009C003330
:01009D00332F
:01009E00332E
:01009F00332D
:0100A000332C
:0100A100342A
:0100A2003429
:0100A3003428
:0100A4003427
:0100A5003426
:0100A6003425
:0100A7003424
:0100A8003423
:0100A9003422
:0100AA003421
:0100AB003420
:0100AC00341F
:0100AD00351D
:0100AE00351C
:0100AF00351B
:0100B000351A
:0100B1003519
:0100B2003518
:0100B3003517
:0100B4003516
:0100B5003515
:0100B6003514
:0100B7003513
:0100B8003512
:0100B9003511
:0100BA003510
:0100BB00350F
:0100BC00360D
:0100BD00360C
:0100BE00360B
:0100BF00360A
:0100C0003609
:0100C1003608
:0100C2003607
:0100C3003606
:0100C4003605
:0100C5003604
:0100C6003603
:0100C7003602
:0100C8003601
:0100C9003600
:0100CA0036FF
:0100CB0036FE
:0100CC0036FD
:0100CD0036FC
:0100CE0036FB
:0100CF0036FA
:0100D00036F9
:0100D10036F8
:0100D20036F7
:0100D30036F6
:0100D40036F5
:0100D50036F4
:0100D60036F3
:0100D70036F2
:0100D80036F1
:0100D90036F0
:0100DA0036EF
:0100DB0036EE
:0100DC0036ED
:0100DD0036EC
:0100DE0036EB
:0100DF0036EA
:0100E00036E9
:0100E10036E8
:0100E20036E7
:0100E30036E6
:0100E40036E5
:0100E50036E4
:0100E60036E3
:0100E70036E2
:0100E80036E1
:0100E90036E0
:0100EA0035E0
:0100EB0036DE
:0100EC0036DD
:0100ED0036DC
:0100EE0036DB
:0100EF0036DA
:0100F00036D9
:0100F10037D7
:0100F20037D6
:0100F30037D5
:0100F40037D4
:0100F50037D3
:0100F6003BCE
:0100F7003FC9
:0100F80041C6
:0100F90041C5
:0100FA0041C4
:0100FB0041C3
:0100FC0045BE
:0100FD0049B9
:0100FE004BB6
:0100FF0050B0
:010100005F9F
:01010100629B
:010102007A82
:010103007A81
:010104007A80
:010105007A7F
:010106007A7E
:010107007A7D
:010108007A7C
:010109007A7B
:01010A007A7A
:01010B007A79
:01010C007A78
:01010D007A77
:01010E007A76
:01010F007A75
:010110007A74
:010111007A73
:010112007A72
:010113007A71
:010114007773
:010115007772
:010116007375
:010117007374
:010118007373
:010119006F76
:01011A00667E
:01011B005E85
:01011C005191
:01011D004E93
:01011E004997
:01011F00449B
:010120004E90
:010121004E8F
:010122004E8E
:010123004E8D
:010124004E8C
:010125004E8B
:010126004E8A
:010127004E89
:010128004E88
:010129004E87
:01012A004E86
:01012B004E85
:01012C004E84
:01012D004E83
:01012E004E82
:01012F004E81
:010130004E80
:010131004E7F
:010132004E7E
:010133004E7D
:0101340025A5
:010135003495
:010136003494
:010137003493
:010138003492
:010139003491
:01013A00368E
:01013B00368D
:01013C00378B
:01013D00378A
:01013E003789
:01013F003788
:010140003787
:010141003786
:010142003884
:010143003883
:010144003882
:010145003881
:010146003880
:01014700387F
:01014800387E
:01014900387D
:01014A00387C
:01014B00387B
:01014C00387A
:01014D003879
:01014E003878
:01014F003877
:010150003876
:010151003875
:010152003874
:010153003873
:010154003872
:010155003871
:010156003870
:01015700386F
:01015800376F
:01015900376E
:01015A00376D
:01015B00366D
:01015C00366C
:01015D00366B
:01015E00366A
:01015F003669
:010160003668
:010161003568
:010162003864
:010163003863
:010164003862
:010165003861
:010166003860
:01016700385F
:01016800385E
:01016900385D
:01016A00385C
:01016B00385B
:01016C00385A
:01016D003859
:01016E003858
:01016F003857
:010170003856
:010171003855
:010172003854
:010173003853
:010174003852
:010175003851
:010176003850
:01017700384F
:01017800384E
:01017900384D
:01017A00384C
:01017B00384B
:01017C00384A
:01017D003849
:01017E003848
:01017F003847
:010180003846
:010181003845
:010182003844
:010183003843
:010184003842
:010185003841
:010186003840
:01018700383F
:01018800383E
:01018900373E
:01018A00373D
:01018B00373C
:01018C00373B
:01018D00373A
:01018E003739
:01018F003738
:010190003737
:010191003736
:010192003735
:010193003734
:010194003733
:010195003732
:010196003731
:010197003730
:01019800372F
:01019900372E
:01019A00372D
:01019B00372C
:01019C00372B
:01019D00372A
:01019E003729
:01019F003629
:0101A0003628
:0101A1003627
:0101A2003626
:0101A3003625
:0101A4003624
:0101A5003623
:0101A6003622
:0101A7003522
:0101A8003521
:0101A9003520
:0101AA00351F
:0101AB00351E
:0101AC00341E
:0101AD00331E
:0101AE00331D
:0101AF00331C
:0101B000331B
:0101B100331A
:0101B2003319
:0101B3003318
:0101B4003317
:0101B5003316
:0101B6003315
:0101B7003314
:0101B8003313
:0101B9003312
:0101BA003311
:0101BB003310
:0101BC00330F
:0101BD00340D
:0101BE00340C
:0101BF00350A
:0101C0003509
:0101C1003508
:0101C2003507
:0101C3003506
:0101C4003505
:0101C5003504
:0101C6003503
:0101C7003502
:0101C8003501
:0101C9003500
:0101CA0035FF
:0101CB0035FE
:0101CC0035FD
:0101CD0035FC
:0101CE0035FB
:0101CF0035FA
:0101D00035F9
:0101D10035F8
:0101D20035F7
:0101D30035F6
:0101D40035F5
:0101D50035F4
:0101D60035F3
:0101D70035F2
:0101D80036F0
:0101D90036EF
:0101DA0036EE
:0101DB0036ED
:0101DC0036EC
:0101DD0036EB
:0101DE0036EA
:0101DF0036E9
:0101E00036E8
:0101E10036E7
:0101E20036E6
:0101E30036E5
:0101E40036E4
:0101E50036E3
:0101E60036E2
:0101E70036E1
:0101E80036E0
:0101E90036DF
:0101EA0036DE
:0101EB0036DD
:0101EC0036DC
:0101ED0036DB
:0101EE0036DA
:0101EF0036D9
:0101F00036D8
:0101F10036D7
:0101F20036D6
:0101F30036D5
:0101F40036D4
:0101F50036D3
:0101F60036D2
:0101F70036D1
:0101F80036D0
:0101F90036CF
:0101FA0036CE
:0101FB0036CD
:0101FC0036CC
:0101FD0036CB
:0101FE0036CA
:0101FF0036C9
:0102000036C7
:0102010036C6
:0102020036C5
:0102030036C4
:0102040036C3
:0102050036C2
:0102060035C2
:0102070036C0
:0102080036BF
:0102090036BE
:01020A0036BD
:01020B0036BC
:01020C0036BB
:01020D0037B9
:01020E0037B8
:01020F0039B5
:010210003AB3
:010211003AB2
:010212003DAE
:010213003FAB
:0102140041A8
:0102150041A7
:0102160041A6
:0102170041A5
:0102180045A0
:01021900499B
:01021A004B98
:01021B005092
:01021C005B86
:01021D00627E
:01021E00746B
:01021F007767
:010220007766
:010221007765
:010222007764
:010223007763
:010224007762
:010225007761
:010226007760
:01022700775F
:01022800775E
:01022900775D
:01022A00775C
:01022B00775B
:01022C00775A
:01022D007759
:01022E007758
:01022F007757
:010230007756
:010231007755
:010232006F5C
:010233006F5B
:010234006D5C
:010235006D5B
:010236006661
:010237005E68
:010238005174
:010239004E76
:01023A00497A
:01023B00447E
:01023C004C75
:01023D004C74
:01023E004C73
:01023F004C72
:010240004C71
:010241004C70
:010242004C6F
:010243004C6E
:010244004C6D
:010245004C6C
:010246004C6B
:010247004A6C
:010248004570
:01024900456F
:01024A00456E
:01024B00456D
:01024C00456C
:01024D00456B
:01024E003877
:01024F00337B
:010250003479
:010251003478
:010252003477
:010253003476
:010254003475
:010255003474
:010256003671
:010257003670
:01025800376E
:01025900376D
:01025A00376C
:01025B00376B
:01025C00376A
:01025D003769
:01025E003867
:01025F003866
:010260003865
:010261003864
:010262003863
:010263003862
:010264003861
:010265003860
:01026600385F
:01026700385E
:01026800385D
:01026900385C
:01026A00385B
:01026B00385A
:01026C003859
:01026D003858
:01026E003857
:01026F003856
:010270003855
:010271003854
:010272003C4F
:010273003C4E
:010274003C4D
:010275003C4C
:010276003C4B
:010277003C4A
:010278003C49
:010279003C48
:01027A003C47
:01027B003C46
:01027C003C45
:01027D003C44
:01027E003C43
:01027F003C42
:010280003C41
:010281003C40
:010282003C3F
:010283003C3E
:010284003C3D
:010285003C3C
:010286003C3B
:010287003C3A
:010288003B3A
:010289003B39
:01028A003B38
:01028B003B37
:01028C003B36
:01028D003B35
:01028E003A35
:01028F003A34
:010290003A33
:010291003834
:010292003833
:010293003832
:010294003831
:010295003830
:01029600382F
:01029700382E
:01029800382D
:01029900382C
:01029A00382B
:01029B00382A
:01029C003829
:01029D003828
:01029E003827
:01029F003826
:0102A0003825
:0102A1003824
:0102A2003823
:0102A3003822
:0102A4003821
:0102A5003721
:0102A6003720
:0102A700371F
:0102A800371E
:0102A900371D
:0102AA00371C
:0102AB00371B
:0102AC00371A
:0102AD003719
:0102AE003718
:0102AF003717
:0102B0003716
:0102B1003715
:0102B2003714
:0102B3003713
:0102B4003712
:0102B5003711
:0102B6003710
:0102B700370F
:0102B800370E
:0102B900370D
:0102BA00370C
:0102BB00360C
:0102BC00360B
:0102BD00360A
:0102BE003609
:0102BF003608
:0102C0003607
:0102C1003606
:0102C2003605
:0102C3003505
:0102C4003504
:0102C5003503
:0102C6003502
:0102C7003501
:0102C8003401
:0102C9003301
:0102CA003300
:0102CB0033FF
:0102CC0033FE
:0102CD0033FD
:0102CE0033FC
:0102CF0033FB
:0102D00033FA
:0102D10033F9
:0102D20033F8
:0102D30033F7
:0102D40033F6
:0102D50033F5
:0102D60033F4
:0102D70033F3
:0102D80033F2
:0102D90034F0
:0102DA0034EF
:0102DB0035ED
:0102DC0035EC
:0102DD0035EB
:0102DE0035EA
:0102DF0035E9
:0102E00035E8
:0102E10035E7
:0102E20035E6
:0102E30035E5
:0102E40035E4
:0102E50035E3
:0102E60035E2
:0102E70035E1
:0102E80035E0
:0102E90035DF
:0102EA0035DE
:0102EB0035DD
:0102EC0035DC
:0102ED0035DB
:0102EE0035DA
:0102EF0035D9
:0102F00035D8
:0102F10035D7
:0102F20035D6
:0102F30035D5
:0102F40035D4
:0102F50035D3
:0102F60035D2
:0102F70035D1
:0102F80035D0
:0102F90035CF
:0102FA0035CE
:0102FB0035CD
:0102FC0035CC
:0102FD0035CB
:0102FE0035CA
:0102FF0035C9
:0103000035C7
:0103010035C6
:0103020035C5
:0103030035C4
:0103040035C3
:0103050035C2
:0103060035C1
:0103070035C0
:0103080035BF
:0103090035BE
:01030A0035BD
:01030B0035BC
:01030C0035BB
:01030D0035BA
:01030E0035B9
:01030F0035B8
:0103100035B7
:0103110035B6
:0103120035B5
:0103130035B4
:0103140035B3
:0103150035B2
:0103160035B1
:0103170035B0
:0103180035AF
:0103190035AE
:01031A0035AD
:01031B0035AC
:01031C0035AB
:01031D0035AA
:01031E0035A9
:01031F0035A8
:0103200035A7
:0103210034A7
:0103220035A5
:0103230035A4
:0103240035A3
:0103250035A2
:0103260035A1
:0103270035A0
:01032800359F
:01032900379C
:01032A00379B
:01032B003998
:01032C003A96
:01032D003D92
:01032E003D91
:01032F003D90
:01033000418B
:01033100418A
:010332004189
:010333004188
:010334004583
:01033500487F
:010336004B7B
:010337004E77
:01033800586C
:010339006261
:01033A007151
:01033B007150
:01033C00714F
:01033D00714E
:01033E00714D
:01033F00714C
:01034000714B
:01034100714A
:010342007149
:010343007148
:010344007147
:010345007146
:010346007145
:010347007144
:010348007143
:010349007142
:01034A007141
:01034B007140
:01034C00713F
:01034D00713E
:01034E006F3F
:01034F006C41
:010350006C40
:010351006C3F
:010352006644
:010353005E4B
:010354005157
:010355004E59
:01035600495D
:010357004461
:010358004262
:010359004261
:01035A004260
:01035B00425F
:01035C00425E
:01035D00425D
:01035E00425C
:01035F00425B
:01036000425A
:010361004259
:010362004258
:010363004257
:010364004256
:010365004255
:010366004254
:010367004253
:010368004252
:010369002A69
:01036A00345E
:01036B00345D
:01036C00345C
:01036D00345B
:01036E00345A
:01036F003459
:010370003458
:010371003457
:010372003654
:010373003653
:010374003751
:010375003750
:01037600374F
:01037700374E
:01037800374D
:01037900374C
:01037A00384A
:01037B003849
:01037C003848
:01037D003847
:01037E003846
:01037F003845
:010380003844
:010381003843
:010382003842
:010383003841
:010384003840
:01038500383F
:01038600383E
:01038700383D
:01038800383C
:01038900383B
:01038A00383A
:01038B003839
:01038C003838
:01038D003837
:01038E003C32
:01038F003C31
:010390003C30
:010391003C2F
:010392003C2E
:010393003C2D
:010394003C2C
:010395003C2B
:010396003C2A
:010397003C29
:010398003C28
:010399003C27
:01039A003C26
:01039B003C25
:01039C003C24
:01039D003C23
:01039E003C22
:01039F003C21
:0103A0003C20
:0103A1003C1F
:0103A2003C1E
:0103A3003C1D
:0103A4003B1D
:0103A5003B1C
:0103A6003B1B
:0103A7003B1A
:0103A8003B19
:0103A9003B18
:0103AA003A18
:0103AB003A17
:0103AC003A16
:0103AD003817
:0103AE003816
:0103AF003815
:0103B0003814
:0103B1003813
:0103B2003812
:0103B3003811
:0103B4003810
:0103B500380F
:0103B600380E
:0103B700380D
:0103B800380C
:0103B900380B
:0103BA00380A
:0103BB003809
:0103BC003808
:0103BD003807
:0103BE003806
:0103BF003805
:0103C0003804
:0103C1003704
:0103C2003703
:0103C3003702
:0103C4003701
:0103C5003700
:0103C60037FF
:0103C70037FE
:0103C80037FD
:0103C90037FC
:0103CA0037FB
:0103CB0037FA
:0103CC0037F9
:0103CD0037F8
:0103CE0037F7
:0103CF0037F6
:0103D00037F5
:0103D10037F4
:0103D20037F3
:0103D30037F2
:0103D40037F1
:0103D50037F0
:0103D60037EF
:0103D70036EF
:0103D80036EE
:0103D90036ED
:0103DA0036EC
:0103DB0036EB
:0103DC0036EA
:0103DD0036E9
:0103DE0036E8
:0103DF0035E8
:0103E00035E7
:0103E10035E6
:0103E20035E5
:0103E30035E4
:0103E40034E4
:0103E50033E4
:0103E60033E3
:0103E70033E2
:0103E80033E1
:0103E90033E0
:0103EA0033DF
:0103EB0033DE
:0103EC0033DD
:0103ED0033DC
:0103EE0033DB
:0103EF0033DA
:0103F00033D9
:0103F10033D8
:0103F20033D7
:0103F30033D6
:0103F40033D5
:0103F50034D3
:0103F60034D2
:0103F70036CF
:0103F80036CE
:0103F90036CD
:0103FA0036CC
:0103FB0036CB
:0103FC0036CA
:0103FD0036C9
:0103FE0036C8
:0103FF0036C7
:0104000036C5
:0104010036C4
:0104020036C3
:0104030036C2
:0104040036C1
:0104050036C0
:0104060036BF
:0104070036BE
:0104080036BD
:0104090035BD
:01040A0035BC
:01040B0035BB
:01040C0035BA
:01040D0035B9
:01040E0035B8
:01040F0035B7
:0104100035B6
:0104110035B5
:0104120035B4
:0104130035B3
:0104140035B2
:0104150037AF
:0104160037AE
:0104170037AD
:0104180037AC
:0104190037AB
:01041A0037AA
:01041B0037A9
:01041C0037A8
:01041D0037A7
:01041E0037A6
:01041F0037A5
:0104200037A4
:0104210037A3
:0104220037A2
:0104230037A1
:0104240037A0
:01042500379F
:01042600379E
:01042700379D
:01042800379C
:01042900379B
:01042A00379A
:01042B003799
:01042C003798
:01042D003797
:01042E003796
:01042F003795
:010430003794
:010431003793
:010432003792
:010433003791
:010434003790
:01043500378F
:01043600378E
:01043700378D
:01043800378C
:01043900378B
:01043A00378A
:01043B003789
:01043C003788
:01043D003787
:01043E003786
:01043F003785
:010440003784
:010441003783
:010442003782
:010443003781
:010444003780
:01044500377F
:01044600377E
:010447003A7A
:010448003A79
:010449003D75
:01044A003D74
:01044B003D73
:01044C00416E
:01044D00416D
:01044E00416C
:01044F00416B
:010450004269
:010451004268
:010452004861
:01045300495F
:01045400495E
:01045500495D
:01045600495C
:01045700495B
:01045800495A
:010459004959
:01045A004958
:01045B004957
:01045C004956
:01045D004955
:01045E004954
:01045F004953
:010460004952
:010461004951
:010462004950
:01046300494F
:01046400494E
:01046500494D
:01046600494C
:01046700494B
:01046800494A
:010469004949
:01046A004948
:01046B004947
:01046C004946
:01046D004945
:01046E004944
:01046F004943
:010470004942
:010471004941
:010472004940
:010473004444
:010474004245
:010475004244
:010476004243
:010477004242
:010478004241
:010479004240
:01047A00423F
:01047B00423E
:01047C00423D
:01047D00423C
:01047E00423B
:01047F00423A
:010480004239
:010481004238
:010482004237
:010483004236
:010484002D4A
:010485003442
:010486003441
:010487003440
:01048800343F
:01048900343E
:01048A00343D
:01048B00343C
:01048C003738
:01048D003737
:01048E003736
:01048F003735
:010490003734
:010491003733
:010492003732
:010493003731
:010494003730
:01049500372F
:01049600382D
:01049700382C
:01049800382B
:01049900382A
:01049A003829
:01049B003828
:01049C003827
:01049D003826
:01049E003825
:01049F003824
:0104A0003823
:0104A1003822
:0104A2003821
:0104A3003820
:0104A400381F
:0104A500381E
:0104A600381D
:0104A700381C
:0104A800381B
:0104A900381A
:0104AA003C15
:0104AB003C14
:0104AC003C13
:0104AD003C12
:0104AE003C11
:0104AF003C10
:0104B0003C0F
:0104B1003C0E
:0104B2003C0D
:0104B3003C0C
:0104B4003C0B
:0104B5003C0A
:0104B6003C09
:0104B7003C08
:0104B8003C07
:0104B9003C06
:0104BA003C05
:0104BB003C04
:0104BC003C03
:0104BD003C02
:0104BE003C01
:0104BF003C00
:0104C0003B00
:0104C1003BFF
:0104C2003BFE
:0104C3003BFD
:0104C4003BFC
:0104C5003BFB
:0104C6003AFB
:0104C7003AFA
:0104C8003AF9
:0104C90038FA
:0104CA0038F9
:0104CB0038F8
:0104CC0038F7
:0104CD0038F6
:0104CE0038F5
:0104CF0038F4
:0104D00038F3
:0104D10038F2
:0104D20038F1
:0104D30038F0
:0104D40038EF
:0104D50038EE
:0104D60038ED
:0104D70038EC
:0104D80038EB
:0104D90038EA
:0104DA0038E9
:0104DB0038E8
:0104DC0038E7
:0104DD0037E7
:0104DE0037E6
:0104DF0037E5
:0104E00037E4
:0104E10037E3
:0104E20037E2
:0104E30037E1
:0104E40037E0
:0104E50037DF
:0104E60037DE
:0104E70037DD
:0104E80037DC
:0104E90037DB
:0104EA0037DA
:0104EB0037D9
:0104EC0037D8
:0104ED0037D7
:0104EE0037D6
:0104EF0037D5
:0104F00037D4
:0104F10037D3
:0104F20037D2
:0104F30036D2
:0104F40036D1
:0104F50036D0
:0104F60036CF
:0104F70036CE
:0104F80036CD
:0104F90036CC
:0104FA0036CB
:0104FB0035CB
:0104FC0035CA
:0104FD0035C9
:0104FE0035C8
:0104FF0035C7
:0105000034C6
:0105010033C6
:0105020033C5
:0105030033C4
:0105040033C3
:0105050033C2
:0105060033C1
:0105070033C0
:0105080033BF
:0105090033BE
:01050A0033BD
:01050B0033BC
:01050C0033BB
:01050D0033BA
:01050E0033B9
:01050F0033B8
:0105100033B7
:0105110033B6
:0105120034B4
:0105130036B1
:0105140036B0
:0105150036AF
:0105160036AE
:0105170036AD
:0105180036AC
:0105190036AB
:01051A0036AA
:01051B0036A9
:01051C0036A8
:01051D0036A7
:01051E0036A6
:01051F0036A5
:0105200036A4
:0105210036A3
:0105220036A2
:0105230036A1
:0105240036A0
:0105250035A0
:01052600359F
:01052700359E
:01052800359D
:01052900359C
:01052A00359B
:01052B00359A
:01052C003599
:01052D003598
:01052E003597
:01052F003596
:010530003595
:010531003792
:010532003791
:010533003790
:01053400378F
:01053500378E
:01053600378D
:01053700378C
:01053800378B
:01053900378A
:01053A003789
:01053B003788
:01053C003787
:01053D003786
:01053E003884
:01053F003883
:010540003882
:010541003881
:010542003880
:01054300387F
:01054400387E
:01054500387D
:01054600387C
:01054700387B
:01054800387A
:010549003879
:01054A003878
:01054B003877
:01054C003876
:01054D003875
:01054E003874
:01054F003873
:010550003773
:010551003772
:010552003771
:010553003770
:01055400376F
:01055500376E
:01055600376D
:01055700376C
:01055800376B
:01055900376A
:01055A003769
:01055B003768
:01055C003767
:01055D003766
:01055E003765
:01055F003764
:010560003763
:010561003762
:010562003761
:010563003A5D
:010564003A5C
:010565003D58
:010566003E56
:010567003E55
:010568004052
:010569004051
:01056A004050
:01056B00404F
:01056C00404E
:01056D00404D
:01056E004448
:01056F004447
:010570004446
:010571004445
:010572004444
:010573004443
:010574004442
:010575004441
:010576004440
:01057700443F
:01057800443E
:01057900443D
:01057A00443C
:01057B00443B
:01057C00443A
:01057D004439
:01057E004438
:01057F004437
:010580003F3B
:010581004336
:010582004335
:010583004334
:010584004333
:010585004332
:010586004331
:010587004330
:01058800432F
:01058900432E
:01058A00432D
:01058B00432C
:01058C00432B
:01058D00432A
:01058E004329
:01058F004328
:010590003E2C
:010591003E2B
:010592003E2A
:010593003E29
:010594003E28
:010595003E27
:010596003E26
:010597003E25
:010598003E24
:010599003E23
:01059A003E22
:01059B003E21
:01059C003E20
:01059D003E1F
:01059E003E1E
:01059F002932
:0105A0003327
:0105A1003425
:0105A2003424
:0105A3003423
:0105A4003422
:0105A5003421
:0105A6003420
:0105A700341F
:0105A800381A
:0105A9003819
:0105AA003818
:0105AB003817
:0105AC003816
:0105AD003815
:0105AE003814
:0105AF003813
:0105B0003812
:0105B1003811
:0105B2003810
:0105B300380F
:0105B400380E
:0105B500380D
:0105B600380C
:0105B700380B
:0105B800380A
:0105B9003809
:0105BA003808
:0105BB003807
:0105BC003806
:0105BD003805
:0105BE003804
:0105BF003803
:0105C0003802
:0105C1003801
:0105C2003800
:0105C30038FF
:0105C40038FE
:0105C50038FD
:0105C6003CF8
:0105C7003CF7
:0105C8003CF6
:0105C9003CF5
:0105CA003CF4
:0105CB003CF3
:0105CC003CF2
:0105CD003CF1
:0105CE003CF0
:0105CF003CEF
:0105D0003CEE
:0105D1003CED
:0105D2003CEC
:0105D3003CEB
:0105D4003CEA
:0105D5003CE9
:0105D6003CE8
:0105D7003CE7
:0105D8003CE6
:0105D9003CE5
:0105DA003CE4
:0105DB003CE3
:0105DC003BE3
:0105DD003BE2
:0105DE003BE1
:0105DF003BE0
:0105E0003BDF
:0105E1003BDE
:0105E2003ADE
:0105E3003ADD
:0105E4003ADC
:0105E50038DD
:0105E60038DC
:0105E70038DB
:0105E80038DA
:0105E90038D9
:0105EA0038D8
:0105EB0038D7
:0105EC0038D6
:0105ED0038D5
:0105EE0038D4
:0105EF0038D3
:0105F00038D2
:0105F10038D1
:0105F20038D0
:0105F30038CF
:0105F40038CE
:0105F50038CD
:0105F60038CC
:0105F70038CB
:0105F80038CA
:0105F90037CA
:0105FA0037C9
:0105FB0037C8
:0105FC0037C7
:0105FD0037C6
:0105FE0037C5
:0105FF0037C4
:0106000037C2
:0106010037C1
:0106020037C0
:0106030037BF
:0106040037BE
:0106050037BD
:0106060037BC
:0106070037BB
:0106080037BA
:0106090037B9
:01060A0037B8
:01060B0037B7
:01060C0037B6
:01060D0037B5
:01060E0037B4
:01060F0036B4
:0106100036B3
:0106110036B2
:0106120036B1
:0106130036B0
:0106140036AF
:0106150036AE
:0106160036AD
:0106170035AD
:0106180035AC
:0106190035AB
:01061A0035AA
:01061B0035A9
:01061C0034A9
:01061D0033A9
:01061E0033A8
:01061F0033A7
:0106200033A6
:0106210033A5
:0106220033A4
:0106230033A3
:0106240033A2
:0106250033A1
:0106260033A0
:01062700339F
:01062800339E
:01062900339D
:01062A00339C
:01062B00339B
:01062C00339A
:01062D003399
:01062E003695
:01062F003694
:010630003693
:010631003692
:010632003691
:010633003690
:01063400368F
:01063500368E
:01063600368D
:01063700368C
:01063800368B
:01063900368A
:01063A003689
:01063B003688
:01063C003687
:01063D003686
:01063E003685
:01063F003684
:010640003683
:010641003583
:010642003582
:010643003680
:01064400367F
:01064500367E
:01064600367D
:01064700367C
:01064800367B
:01064900367A
:01064A003679
:01064B003678
:01064C003677
:01064D003775
:01064E003774
:01064F003773
:010650003772
:010651003771
:010652003770
:01065300376F
:01065400376E
:01065500376D
:01065600376C
:01065700376B
:01065800376A
:010659003769
:01065A003867
:01065B003866
:01065C003865
:01065D003864
:01065E003863
:01065F003862
:010660003861
:010661003860
:01066200385F
:01066300385E
:01066400385D
:01066500385C
:01066600385B
:01066700385A
:010668003859
:010669003858
:01066A003857
:01066B003856
:01066C003756
:01066D003755
:01066E003754
:01066F003753
:010670003752
:010671003751
:010672003750
:01067300374F
:01067400374E
:01067500374D
:01067600374C
:01067700374B
:01067800374A
:010679003749
:01067A003748
:01067B003747
:01067C003746
:01067D003745
:01067E003744
:01067F003A40
:010680003A3F
:010681003D3B
:010682003E39
:010683003E38
:010684004035
:010685004034
:010686004033
:010687004032
:010688004031
:010689004030
:01068A00422D
:01068B00422C
:01068C00422B
:01068D00422A
:01068E004229
:01068F004228
:010690004227
:010691004226
:010692004225
:010693004224
:010694004223
:010695004222
:010696004221
:010697004220
:01069800421F
:01069900421E
:01069A00421D
:01069B00421C
:01069C003F1E
:01069D004319
:01069E004318
:01069F004317
:0106A0004316
:0106A1004315
:0106A2004314
:0106A3004313
:0106A4004312
:0106A5004311
:0106A6004310
:0106A700430F
:0106A800430E
:0106A900430D
:0106AA00430C
:0106AB00430B
:0106AC003914
:0106AD003913
:0106AE003912
:0106AF003911
:0106B0003910
:0106B100390F
:0106B200390E
:0106B300390D
:0106B400390C
:0106B500390B
:0106B600390A
:0106B7003909
:0106B8003908
:0106B9002E12
:0106BA00330C
:0106BB00330B
:0106BC00330A
:0106BD003408
:0106BE003407
:0106BF003505
:0106C0003504
:0106C1003503
:0106C2003601
:0106C30037FF
:0106C40038FD
:0106C50038FC
:0106C60038FB
:0106C70038FA
:0106C80038F9
:0106C90038F8
:0106CA0038F7
:0106CB0038F6
:0106CC0038F5
:0106CD0038F4
:0106CE0038F3
:0106CF0038F2
:0106D00038F1
:0106D10038F0
:0106D20038EF
:0106D30038EE
:0106D40038ED
:0106D50038EC
:0106D60037EC
:0106D70037EB
:0106D80037EA
:0106D90037E9
:0106DA0037E8
:0106DB0037E7
:0106DC0036E7
:0106DD0038E4
:0106DE0038E3
:0106DF0038E2
:0106E00038E1
:0106E10038E0
:0106E2003CDB
:0106E3003CDA
:0106E4003CD9
:0106E5003CD8
:0106E6003CD7
:0106E7003CD6
:0106E8003CD5
:0106E9003CD4
:0106EA003CD3
:0106EB003CD2
:0106EC003CD1
:0106ED003CD0
:0106EE003CCF
:0106EF003CCE
:0106F0003CCD
:0106F1003CCC
:0106F2003CCB
:0106F3003CCA
:0106F4003CC9
:0106F5003CC8
:0106F6003CC7
:0106F7003CC6
:0106F8003BC6
:0106F9003BC5
:0106FA003BC4
:0106FB003BC3
:0106FC003BC2
:0106FD003BC1
:0106FE003AC1
:0106FF003AC0
:010700003ABE
:0107010038BF
:0107020038BE
:0107030038BD
:0107040038BC
:0107050038BB
:0107060038BA
:0107070038B9
:0107080038B8
:0107090038B7
:01070A0038B6
:01070B0038B5
:01070C0038B4
:01070D0038B3
:01070E0038B2
:01070F0038B1
:0107100038B0
:0107110038AF
:0107120038AE
:0107130038AD
:0107140038AC
:0107150037AC
:0107160037AB
:0107170037AA
:0107180037A9
:0107190037A8
:01071A0037A7
:01071B0037A6
:01071C0037A5
:01071D0037A4
:01071E0037A3
:01071F0037A2
:0107200037A1
:0107210037A0
:01072200379F
:01072300379E
:01072400379D
:01072500379C
:01072600379B
:01072700379A
:010728003799
:010729003798
:01072A003797
:01072B003697
:01072C003696
:01072D003695
:01072E003694
:01072F003693
:010730003692
:010731003691
:010732003690
:010733003590
:01073400358F
:01073500358E
:01073600358D
:01073700358C
:01073800348C
:01073900338C
:01073A00338B
:01073B00338A
:01073C003389
:01073D003388
:01073E003387
:01073F003386
:010740003385
:010741003384
:010742003383
:010743003382
:010744003381
:010745003380
:01074600337F
:01074700337E
:01074800337D
:01074900337C
:01074A003678
:01074B003677
:01074C003676
:01074D003675
:01074E003674
:01074F003673
:010750003672
:010751003671
:010752003670
:01075300366F
:01075400366E
:01075500366D
:01075600366C
:01075700366B
:01075800366A
:010759003669
:01075A003668
:01075B003667
:01075C003666
:01075D003566
:01075E003565
:01075F003663
:010760003662
:010761003661
:010762003660
:01076300365F
:01076400365E
:01076500365D
:01076600365C
:01076700365B
:01076800365A
:010769003758
:01076A003757
:01076B003756
:01076C003755
:01076D003754
:01076E003753
:01076F003752
:010770003751
:010771003750
:01077200374F
:01077300374E
:01077400374D
:01077500374C
:01077600384A
:010777003849
:010778003848
:010779003847
:01077A003846
:01077B003845
:01077C003844
:01077D003843
:01077E003842
:01077F003841
:010780003840
:01078100383F
:01078200383E
:01078300383D
:01078400383C
:01078500383B
:01078600383A
:010787003839
:010788003739
:010789003738
:01078A003737
:01078B003736
:01078C003735
:01078D003734
:01078E003733
:01078F003732
:010790003731
:010791003730
:01079200372F
:01079300372E
:01079400372D
:01079500372C
:01079600372B
:01079700372A
:010798003729
:010799003728
:01079A003727
:01079B003A23
:01079C003A22
:01079D003D1E
:01079E003E1C
:01079F003E1B
:0107A0003F19
:0107A1003F18
:0107A2003F17
:0107A3003F16
:0107A4003F15
:0107A5003F14
:0107A6003F13
:0107A7003F12
:0107A8003F11
:0107A9003F10
:0107AA003F0F
:0107AB003F0E
:0107AC003F0D
:0107AD003F0C
:0107AE003F0B
:0107AF003F0A
:0107B0003F09
:0107B1003F08
:0107B2003F07
:0107B3003F06
:0107B4003F05
:0107B5003F04
:0107B6003F03
:0107B7003F02
:0107B8003F01
:0107B9003F00
:0107BA003FFF
:0107BB003FFE
:0107BC003FFD
:0107BD003FFC
:0107BE003FFB
:0107BF003FFA
:0107C0003FF9
:0107C1003FF8
:0107C2003FF7
:0107C3003FF6
:0107C4003FF5
:0107C5003FF4
:0107C6003FF3
:0107C7003EF3
:0107C80039F7
:0107C90039F6
:0107CA0039F5
:0107CB0039F4
:0107CC0039F3
:0107CD0039F2
:0107CE0039F1
:0107CF0039F0
:0107D00039EF
:0107D10039EE
:0107D20039ED
:0107D30039EC
:0107D4002FF5
:0107D50032F1
:0107D60033EF
:0107D70033EE
:0107D80033ED
:0107D90034EB
:0107DA0034EA
:0107DB0035E8
:0107DC0035E7
:0107DD0035E6
:0107DE0036E4
:0107DF0037E2
:0107E00038E0
:0107E10038DF
:0107E20038DE
:0107E30038DD
:0107E40038DC
:0107E50038DB
:0107E60038DA
:0107E70038D9
:0107E80038D8
:0107E90038D7
:0107EA0038D6
:0107EB0038D5
:0107EC0038D4
:0107ED0038D3
:0107EE0038D2
:0107EF0038D1
:0107F00038D0
:0107F10038CF
:0107F20037CF
:0107F30037CE
:0107F40037CD
:0107F50037CC
:0107F60037CB
:0107F70037CA
:0107F80036CA
:0107F90038C7
:0107FA0038C6
:0107FB0038C5
:0107FC0038C4
:0107FD0038C3
:0107FE003CBE
:0107FF003CBD
:010800003CBB
:010801003CBA
:010802003CB9
:010803003CB8
:010804003CB7
:010805003CB6
:010806003CB5
:010807003CB4
:010808003CB3
:010809003CB2
:01080A003CB1
:01080B003CB0
:01080C003CAF
:01080D003CAE
:01080E003CAD
:01080F003CAC
:010810003CAB
:010811003CAA
:010812003CA9
:010813003CA8
:010814003BA8
:010815003BA7
:010816003BA6
:010817003BA5
:010818003BA4
:010819003BA3
:01081A003AA3
:01081B003AA2
:01081C003AA1
:01081D0038A2
:01081E0038A1
:01081F0038A0
:01082000389F
:01082100389E
:01082200389D
:01082300389C
:01082400389B
:01082500389A
:010826003899
:010827003898
:010828003897
:010829003896
:01082A003895
:01082B003894
:01082C003893
:01082D003892
:01082E003891
:01082F003890
:01083000388F
:01083100378F
:01083200378E
:01083300378D
:01083400378C
:01083500378B
:01083600378A
:010837003789
:010838003788
:010839003787
:01083A003786
:01083B003785
:01083C003784
:01083D003783
:01083E003782
:01083F003781
:010840003780
:01084100377F
:01084200377E
:01084300377D
:01084400377C
:01084500377B
:01084600377A
:01084700367A
:010848003679
:010849003678
:01084A003677
:01084B003676
:01084C003675
:01084D003674
:01084E003673
:01084F003573
:010850003572
:010851003571
:010852003570
:01085300356F
:01085400346F
:01085500336F
:01085600336E
:01085700336D
:01085800336C
:01085900336B
:01085A00336A
:01085B003369
:01085C003368
:01085D003367
:01085E003366
:01085F003365
:010860003364
:010861003363
:010862003362
:010863003361
:010864003360
:01086500335F
:01086600365B
:01086700365A
:010868003659
:010869003658
:01086A003657
:01086B003656
:01086C003655
:01086D003654
:01086E003653
:01086F003652
:010870003651
:010871003650
:01087200364F
:01087300364E
:01087400364D
:01087500364C
:01087600364B
:01087700364A
:010878003649
:010879003549
:01087A003548
:01087B003646
:01087C003645
:01087D003644
:01087E003643
:01087F003642
:010880003641
:010881003640
:01088200363F
:01088300363E
:01088400363D
:01088500373B
:01088600373A
:010887003739
:010888003738
:010889003737
:01088A003736
:01088B003735
:01088C003734
:01088D003733
:01088E003732
:01088F003731
:010890003730
:01089100372F
:01089200382D
:01089300382C
:01089400382B
:01089500382A
:010896003829
:010897003828
:010898003827
:010899003826
:01089A003825
:01089B003824
:01089C003823
:01089D003822
:01089E003821
:01089F003820
:0108A000381F
:0108A100381E
:0108A200381D
:0108A300381C
:0108A400371C
:0108A500371B
:0108A600371A
:0108A7003719
:0108A8003718
:0108A9003717
:0108AA003716
:0108AB003715
:0108AC003714
:0108AD003713
:0108AE003712
:0108AF003711
:0108B0003710
:0108B100370F
:0108B200370E
:0108B300370D
:0108B400370C
:0108B500370B
:0108B600370A
:0108B7003A06
:0108B8003A05
:0108B9003D01
:0108BA003EFF
:0108BB003EFE
:0108BC003EFD
:0108BD003EFC
:0108BE003EFB
:0108BF003EFA
:0108C0003EF9
:0108C1003EF8
:0108C2003EF7
:0108C3003FF5
:0108C4003FF4
:0108C5003FF3
:0108C6003FF2
:0108C7003FF1
:0108C8003FF0
:0108C9003FEF
:0108CA003FEE
:0108CB003FED
:0108CC003FEC
:0108CD003FEB
:0108CE003FEA
:0108CF003FE9
:0108D0003FE8
:0108D1003FE7
:0108D2003FE6
:0108D3003FE5
:0108D4003FE4
:0108D5003FE3
:0108D6003FE2
:0108D7003FE1
:0108D8003FE0
:0108D9003FDF
:0108DA003FDE
:0108DB003FDD
:0108DC003FDC
:0108DD003FDB
:0108DE003FDA
:0108DF003FD9
:0108E0003ED9
:0108E10024F2
:0108E20022F3
:0108E30028EC
:0108E40039DA
:0108E50039D9
:0108E60039D8
:0108E70039D7
:0108E80039D6
:0108E90039D5
:0108EA0039D4
:0108EB0039D3
:0108EC0039D2
:0108ED0039D1
:0108EE0039D0
:0108EF0032D6
:0108F00032D5
:0108F10032D4
:0108F20033D2
:0108F30033D1
:0108F40033D0
:0108F50034CE
:0108F60034CD
:0108F70035CB
:0108F80035CA
:0108F90035C9
:0108FA0036C7
:0108FB0037C5
:0108FC0038C3
:0108FD0038C2
:0108FE0038C1
:0108FF0038C0
:0109000038BE
:0109010038BD
:0109020038BC
:0109030038BB
:0109040038BA
:0109050038B9
:0109060038B8
:0109070038B7
:0109080038B6
:0109090038B5
:01090A0038B4
:01090B0038B3
:01090C0038B2
:01090D0038B1
:01090E0037B1
:01090F0037B0
:0109100037AF
:0109110037AE
:0109120037AD
:0109130037AC
:0109140036AC
:0109150038A9
:0109160038A8
:0109170038A7
:0109180038A6
:0109190038A5
:01091A003CA0
:01091B003C9F
:01091C003C9E
:01091D003C9D
:01091E003C9C
:01091F003C9B
:010920003C9A
:010921003C99
:010922003C98
:010923003C97
:010924003C96
:010925003C95
:010926003C94
:010927003C93
:010928003C92
:010929003C91
:01092A003C90
:01092B003C8F
:01092C003C8E
:01092D003C8D
:01092E003C8C
:01092F003C8B
:010930003B8B
:010931003B8A
:010932003B89
:010933003B88
:010934003B87
:010935003B86
:010936003A86
:010937003A85
:010938003A84
:010939003885
:01093A003884
:01093B003883
:01093C003882
:01093D003881
:01093E003880
:01093F00387F
:01094000387E
:01094100387D
:01094200387C
:01094300387B
:01094400387A
:010945003879
:010946003878
:010947003877
:010948003876
:010949003875
:01094A003874
:01094B003873
:01094C003872
:01094D003772
:01094E003771
:01094F003770
:01095000376F
:01095100376E
:01095200376D
:01095300376C
:01095400376B
:01095500376A
:010956003769
:010957003768
:010958003767
:010959003766
:01095A003765
:01095B003764
:01095C003763
:01095D003762
:01095E003761
:01095F003760
:01096000375F
:01096100375E
:01096200375D
:01096300365D
:01096400365C
:01096500365B
:01096600365A
:010967003659
:010968003658
:010969003657
:01096A003656
:01096B003556
:01096C003555
:01096D003554
:01096E003553
:01096F003552
:010970003452
:010971003352
:010972003351
:010973003350
:01097400334F
:01097500334E
:01097600334D
:01097700334C
:01097800334B
:01097900334A
:01097A003349
:01097B003348
:01097C003347
:01097D003346
:01097E003345
:01097F003344
:010980003343
:010981003342
:01098200363E
:01098300363D
:01098400363C
:01098500363B
:01098600363A
:010987003639
:010988003638
:010989003637
:01098A003636
:01098B003635
:01098C003634
:01098D003633
:01098E003632
:01098F003631
:010990003630
:01099100362F
:01099200362E
:01099300362D
:01099400362C
:01099500352C
:01099600352B
:010997003629
:010998003628
:010999003627
:01099A003626
:01099B003625
:01099C003624
:01099D003623
:01099E003622
:01099F003621
:0109A0003620
:0109A100371E
:0109A200371D
:0109A300371C
:0109A400371B
:0109A500371A
:0109A6003719
:0109A7003718
:0109A8003717
:0109A9003716
:0109AA003715
:0109AB003714
:0109AC003713
:0109AD003712
:0109AE003810
:0109AF00380F
:0109B000380E
:0109B100380D
:0109B200380C
:0109B300380B
:0109B400380A
:0109B5003809
:0109B6003808
:0109B7003807
:0109B8003806
:0109B9003805
:0109BA003804
:0109BB003803
:0109BC003802
:0109BD003801
:0109BE003800
:0109BF0038FF
:0109C00037FF
:0109C10037FE
:0109C20037FD
:0109C30037FC
:0109C40037FB
:0109C50037FA
:0109C60037F9
:0109C70037F8
:0109C80037F7
:0109C90037F6
:0109CA0037F5
:0109CB0037F4
:0109CC0037F3
:0109CD0037F2
:0109CE0037F1
:0109CF0037F0
:0109D00037EF
:0109D10037EE
:0109D20037ED
:0109D3003AE9
:0109D4003AE8
:0109D5003DE4
:0109D6003EE2
:0109D70040DF
:0109D80041DD
:0109D90041DC
:0109DA0041DB
:0109DB0042D9
:0109DC0042D8
:0109DD0042D7
:0109DE0042D6
:0109DF0042D5
:0109E00042D4
:0109E10042D3
:0109E20042D2
:0109E30042D1
:0109E40042D0
:0109E50042CF
:0109E60042CE
:0109E70042CD
:0109E80042CC
:0109E90042CB
:0109EA0042CA
:0109EB0042C9
:0109EC0042C8
:0109ED003FCA
:0109EE003FC9
:0109EF003FC8
:0109F0003FC7
:0109F1003FC6
:0109F2003FC5
:0109F3003FC4
:0109F4003FC3
:0109F5003FC2
:0109F6003FC1
:0109F7003FC0
:0109F80029D5
:0109F90018E5
:0109FA0017E5
:0109FB001AE1
:0109FC0026D4
:0109FD0028D1
:0109FE0028D0
:0109FF0028CF
:010A000039BC
:010A010039BB
:010A020039BA
:010A030039B9
:010A040039B8
:010A050039B7
:010A060039B6
:010A070039B5
:010A080039B4
:010A090034B8
:010A0A0034B7
:010A0B0032B8
:010A0C0032B7
:010A0D0032B6
:010A0E0033B4
:010A0F0033B3
:010A100033B2
:010A110034B0
:010A120034AF
:010A130035AD
:010A140035AC
:010A150035AB
:010A160036A9
:010A170037A7
:010A180038A5
:010A190038A4
:010A1A0038A3
:010A1B0038A2
:010A1C0038A1
:010A1D0038A0
:010A1E00389F
:010A1F00389E
:010A2000389D
:010A2100389C
:010A2200389B
:010A2300389A
:010A24003899
:010A25003898
:010A26003897
:010A27003896
:010A28003895
:010A29003894
:010A2A003794
:010A2B003793
:010A2C003792
:010A2D003791
:010A2E003790
:010A2F00378F
:010A3000368F
:010A3100388C
:010A3200388B
:010A3300388A
:010A34003889
:010A35003888
:010A36003C83
:010A37003C82
:010A38003C81
:010A39003C80
:010A3A003C7F
:010A3B003C7E
:010A3C003C7D
:010A3D003C7C
:010A3E003C7B
:010A3F003C7A
:010A40003C79
:010A41003C78
:010A42003C77
:010A43003C76
:010A44003C75
:010A45003C74
:010A46003C73
:010A47003C72
:010A48003C71
:010A49003C70
:010A4A003C6F
:010A4B003C6E
:010A4C003B6E
:010A4D003B6D
:010A4E003B6C
:010A4F003B6B
:010A50003B6A
:010A51003B69
:010A52003A69
:010A53003A68
:010A54003A67
:010A55003868
:010A56003867
:010A57003866
:010A58003865
:010A59003864
:010A5A003863
:010A5B003862
:010A5C003861
:010A5D003860
:010A5E00385F
:010A5F00385E
:010A6000385D
:010A6100385C
:010A6200385B
:010A6300385A
:010A64003859
:010A65003858
:010A66003857
:010A67003856
:010A68003855
:010A69003755
:010A6A003754
:010A6B003753
:010A6C003752
:010A6D003751
:010A6E003750
:010A6F00374F
:010A7000374E
:010A7100374D
:010A7200374C
:010A7300374B
:010A7400374A
:010A7500344C
:010A7600354A
:010A77003549
:010A78003548
:010A79003547
:010A7A003546
:010A7B003545
:010A7C003544
:010A7D003543
:010A7E003542
:010A7F003541
:010A80003540
:010A8100353F
:010A8200353E
:010A8300353D
:010A8400353C
:010A8500353B
:010A8600353A
:010A87003539
:010A88003538
:010A89003537
:010A8A003536
:010A8B003535
:010A8C003435
:010A8D003335
:010A8E003334
:010A8F003333
:010A90003332
:010A91003331
:010A92003330
:010A9300332F
:010A9400332E
:010A9500332D
:010A9600332C
:010A9700332B
:010A9800332A
:010A99003329
:010A9A003328
:010A9B003327
:010A9C003326
:010A9D003325
:010A9E003621
:010A9F003620
:010AA000361F
:010AA100361E
:010AA200361D
:010AA300361C
:010AA400361B
:010AA500361A
:010AA6003619
:010AA7003618
:010AA8003617
:010AA9003616
:010AAA003615
:010AAB003614
:010AAC003613
:010AAD003612
:010AAE003611
:010AAF003610
:010AB000360F
:010AB100350F
:010AB200350E
:010AB300360C
:010AB400360B
:010AB500360A
:010AB6003609
:010AB7003608
:010AB8003607
:010AB9003606
:010ABA003605
:010ABB003604
:010ABC003603
:010ABD003701
:010ABE003700
:010ABF0037FF
:010AC00037FE
:010AC10037FD
:010AC20037FC
:010AC30037FB
:010AC40037FA
:010AC50037F9
:010AC60037F8
:010AC70037F7
:010AC80037F6
:010AC90037F5
:010ACA0038F3
:010ACB0038F2
:010ACC0038F1
:010ACD0038F0
:010ACE0038EF
:010ACF0038EE
:010AD00038ED
:010AD10038EC
:010AD20038EB
:010AD30038EA
:010AD40038E9
:010AD50038E8
:010AD60038E7
:010AD70038E6
:010AD80038E5
:010AD90038E4
:010ADA0038E3
:010ADB0038E2
:010ADC0037E2
:010ADD0037E1
:010ADE0037E0
:010ADF0037DF
:010AE00037DE
:010AE10037DD
:010AE20037DC
:010AE30037DB
:010AE40037DA
:010AE50037D9
:010AE60037D8
:010AE70037D7
:010AE80037D6
:010AE90037D5
:010AEA0037D4
:010AEB0037D3
:010AEC0037D2
:010AED0037D1
:010AEE0037D0
:010AEF003ACC
:010AF0003ACB
:010AF1003DC7
:010AF2003EC5
:010AF30040C2
:010AF40041C0
:010AF50044BC
:010AF60046B9
:010AF70046B8
:010AF80046B7
:010AF90046B6
:010AFA0046B5
:010AFB0046B4
:010AFC0046B3
:010AFD0046B2
:010AFE0046B1
:010AFF0046B0
:010B000046AE
:010B010046AD
:010B020046AC
:010B030046AB
:010B040046AA
:010B050046A9
:010B060046A8
:010B070046A7
:010B080043A9
:010B09003CAF
:010B0A003CAE
:010B0B003CAD
:010B0C003CAC
:010B0D003CAB
:010B0E003CAA
:010B0F0037AE
:010B100029BB
:010B110021C2
:010B12001EC4
:010B130022BF
:010B140026BA
:010B15002DB2
:010B16002DB1
:010B17002DB0
:010B18002DAF
:010B19002DAE
:010B1A002DAD
:010B1B002DAC
:010B1C00399F
:010B1D00399E
:010B1E00399D
:010B1F00399C
:010B2000399B
:010B2100399A
:010B22003999
:010B23003998
:010B240027A9
:010B2500319E
:010B2600319D
:010B2700319C
:010B2800329A
:010B29003299
:010B2A003397
:010B2B003396
:010B2C003395
:010B2D003493
:010B2E003492
:010B2F003590
:010B3000358F
:010B3100358E
:010B3200368C
:010B3300378A
:010B34003888
:010B35003887
:010B36003886
:010B37003885
:010B38003884
:010B39003883
:010B3A003882
:010B3B003881
:010B3C003880
:010B3D00387F
:010B3E00387E
:010B3F00387D
:010B4000387C
:010B4100387B
:010B4200387A
:010B43003879
:010B44003878
:010B45003877
:010B46003678
:010B47003677
:010B48003676
:010B49003675
:010B4A003674
:010B4B003673
:010B4C003672
:010B4D00386F
:010B4E00386E
:010B4F00386D
:010B5000386C
:010B5100386B
:010B52003C66
:010B53003C65
:010B54003C64
:010B55003C63
:010B56003C62
:010B57003C61
:010B58003C60
:010B59003C5F
:010B5A003C5E
:010B5B003C5D
:010B5C003C5C
:010B5D003C5B
:010B5E003C5A
:010B5F003C59
:010B60003C58
:010B61003C57
:010B62003C56
:010B63003C55
:010B64003C54
:010B65003C53
:010B66003C52
:010B67003C51
:010B68003B51
:010B69003B50
:010B6A003B4F
:010B6B003B4E
:010B6C003B4D
:010B6D003B4C
:010B6E003A4C
:010B6F003A4B
:010B70003A4A
:010B7100384B
:010B7200384A
:010B73003849
:010B74003848
:010B75003847
:010B76003846
:010B77003845
:010B78003844
:010B79003843
:010B7A003842
:010B7B003841
:010B7C003840
:010B7D00383F
:010B7E00383E
:010B7F00383D
:010B8000383C
:010B8100383B
:010B8200383A
:010B83003839
:010B84003838
:010B85003738
:010B86003737
:010B87003736
:010B88003735
:010B89003734
:010B8A003733
:010B8B003732
:010B8C003731
:010B8D003730
:010B8E00372F
:010B8F00372E
:010B9000372D
:010B9100342F
:010B9200352D
:010B9300352C
:010B9400352B
:010B9500352A
:010B96003529
:010B97003528
:010B98003527
:010B99003526
:010B9A003525
:010B9B003524
:010B9C003523
:010B9D003522
:010B9E003521
:010B9F003520
:010BA000351F
:010BA100351E
:010BA200351D
:010BA300351C
:010BA400351B
:010BA500351A
:010BA6003519
:010BA7003518
:010BA8003418
:010BA9003318
:010BAA003317
:010BAB003316
:010BAC003315
:010BAD003314
:010BAE003313
:010BAF003114
:010BB0003311
:010BB1003310
:010BB200330F
:010BB300330E
:010BB400330D
:010BB500330C
:010BB600330B
:010BB700330A
:010BB8003309
:010BB9003308
:010BBA003604
:010BBB003603
:010BBC003602
:010BBD003601
:010BBE003600
:010BBF0036FF
:010BC00036FE
:010BC10036FD
:010BC20036FC
:010BC30036FB
:010BC40036FA
:010BC50036F9
:010BC60036F8
:010BC70036F7
:010BC80036F6
:010BC90036F5
:010BCA0036F4
:010BCB0036F3
:010BCC0036F2
:010BCD0035F2
:010BCE0035F1
:010BCF0036EF
:010BD00036EE
:010BD10036ED
:010BD20036EC
:010BD30036EB
:010BD40036EA
:010BD50036E9
:010BD60036E8
:010BD70036E7
:010BD80036E6
:010BD90037E4
:010BDA0037E3
:010BDB0037E2
:010BDC0037E1
:010BDD0037E0
:010BDE0037DF
:010BDF0037DE
:010BE00037DD
:010BE10037DC
:010BE20037DB
:010BE30037DA
:010BE40037D9
:010BE50037D8
:010BE60038D6
:010BE70038D5
:010BE80038D4
:010BE90038D3
:010BEA0038D2
:010BEB0038D1
:010BEC0038D0
:010BED0038CF
:010BEE0038CE
:010BEF0038CD
:010BF00038CC
:010BF10038CB
:010BF20038CA
:010BF30038C9
:010BF40038C8
:010BF50038C7
:010BF60038C6
:010BF70038C5
:010BF80037C5
:010BF90037C4
:010BFA0037C3
:010BFB0037C2
:010BFC0037C1
:010BFD0037C0
:010BFE0037BF
:010BFF0037BE
:010C000037BC
:010C010037BB
:010C020037BA
:010C030037B9
:010C040037B8
:010C050037B7
:010C060037B6
:010C070037B5
:010C080037B4
:010C090037B3
:010C0A0037B2
:010C0B003AAE
:010C0C003AAD
:010C0D003DA9
:010C0E003EA7
:010C0F0040A4
:010C100041A2
:010C1100449E
:010C1200469B
:010C13004898
:010C14004897
:010C15004896
:010C16004895
:010C17004894
:010C18004893
:010C19004892
:010C1A004891
:010C1B004890
:010C1C00488F
:010C1D00488E
:010C1E00488D
:010C1F00488C
:010C2000488B
:010C2100488A
:010C22004889
:010C23004888
:010C24004887
:010C2500418D
:010C2600408D
:010C27003F8D
:010C28002AA1
:010C29001EAC
:010C2A001EAB
:010C2B0021A7
:010C2C00299E
:010C2D003096
:010C2E003095
:010C2F003094
:010C30003093
:010C31003092
:010C32003091
:010C33003090
:010C3400308F
:010C3500308E
:010C3600308D
:010C3700308C
:010C38002893
:010C39002793
:010C3A002792
:010C3B002791
:010C3C00298E
:010C3D002F87
:010C3E002F86
:010C3F002F85
:010C40002F84
:010C41003181
:010C42003180
:010C4300317F
:010C4400327D
:010C4500327C
:010C4600337A
:010C47003379
:010C48003378
:010C49003476
:010C4A003475
:010C4B003573
:010C4C003572
:010C4D003571
:010C4E00366F
:010C4F00376D
:010C5000386B
:010C5100386A
:010C52003869
:010C53003868
:010C54003867
:010C55003866
:010C56003865
:010C57003864
:010C58003863
:010C59003862
:010C5A003861
:010C5B003860
:010C5C00385F
:010C5D00385E
:010C5E00385D
:010C5F00385C
:010C6000385B
:010C6100385A
:010C6200365B
:010C6300365A
:010C64003659
:010C65003658
:010C66003657
:010C67003656
:010C68003655
:010C69003852
:010C6A003851
:010C6B003850
:010C6C00384F
:010C6D00384E
:010C6E003C49
:010C6F003C48
:010C70003C47
:010C71003C46
:010C72003C45
:010C73003C44
:010C74003C43
:010C75003C42
:010C76003C41
:010C77003C40
:010C78003C3F
:010C79003C3E
:010C7A003C3D
:010C7B003C3C
:010C7C003C3B
:010C7D003C3A
:010C7E003C39
:010C7F003C38
:010C80003C37
:010C81003C36
:010C82003C35
:010C83003C34
:010C84003B34
:010C85003B33
:010C86003B32
:010C87003B31
:010C88003B30
:010C89003B2F
:010C8A003A2F
:010C8B003A2E
:010C8C003A2D
:010C8D00382E
:010C8E00382D
:010C8F00382C
:010C9000382B
:010C9100382A
:010C92003829
:010C93003828
:010C94003827
:010C95003826
:010C96003825
:010C97003824
:010C98003823
:010C99003822
:010C9A003821
:010C9B003820
:010C9C00381F
:010C9D00381E
:010C9E00381D
:010C9F00381C
:010CA000381B
:010CA100371B
:010CA200371A
:010CA3003719
:010CA4003718
:010CA5003717
:010CA6003716
:010CA7003715
:010CA8003714
:010CA9003713
:010CAA003712
:010CAB003711
:010CAC003710
:010CAD003412
:010CAE003411
:010CAF003410
:010CB000340F
:010CB100340E
:010CB200340D
:010CB300340C
:010CB400340B
:010CB500310D
:010CB600310C
:010CB700310B
:010CB8003209
:010CB9003208
:010CBA003207
:010CBB003206
:010CBC003205
:010CBD003204
:010CBE003203
:010CBF003202
:010CC0003201
:010CC1003200
:010CC20032FF
:010CC30032FE
:010CC40032FD
:010CC50032FC
:010CC60032FB
:010CC70032FA
:010CC80032F9
:010CC90032F8
:010CCA0032F7
:010CCB0031F7
:010CCC0031F6
:010CCD0031F5
:010CCE0031F4
:010CCF0032F2
:010CD00033F0
:010CD10033EF
:010CD20033EE
:010CD30033ED
:010CD40033EC
:010CD50033EB
:010CD60036E7
:010CD70036E6
:010CD80036E5
:010CD90036E4
:010CDA0036E3
:010CDB0036E2
:010CDC0036E1
:010CDD0036E0
:010CDE0036DF
:010CDF0036DE
:010CE00036DD
:010CE10036DC
:010CE20036DB
:010CE30036DA
:010CE40036D9
:010CE50036D8
:010CE60036D7
:010CE70036D6
:010CE80036D5
:010CE90035D5
:010CEA0035D4
:010CEB0036D2
:010CEC0036D1
:010CED0036D0
:010CEE0036CF
:010CEF0036CE
:010CF00036CD
:010CF10036CC
:010CF20036CB
:010CF30036CA
:010CF40036C9
:010CF50037C7
:010CF60037C6
:010CF70037C5
:010CF80037C4
:010CF90037C3
:010CFA0037C2
:010CFB0037C1
:010CFC0037C0
:010CFD0037BF
:010CFE0037BE
:010CFF0037BD
:010D000037BB
:010D010037BA
:010D020038B8
:010D030038B7
:010D040038B6
:010D050038B5
:010D060038B4
:010D070038B3
:010D080038B2
:010D090038B1
:010D0A0038B0
:010D0B0038AF
:010D0C0038AE
:010D0D0038AD
:010D0E0038AC
:010D0F0038AB
:010D100038AA
:010D110038A9
:010D120038A8
:010D130038A7
:010D140037A7
:010D150037A6
:010D160037A5
:010D170037A4
:010D180037A3
:010D190037A2
:010D1A0037A1
:010D1B0037A0
:010D1C00379F
:010D1D00379E
:010D1E00379D
:010D1F00379C
:010D2000379B
:010D2100379A
:010D22003799
:010D23003798
:010D24003797
:010D25003796
:010D26003795
:010D27003A91
:010D28003A90
:010D29003D8C
:010D2A003E8A
:010D2B004087
:010D2C004185
:010D2D004481
:010D2E00467E
:010D2F00487B
:010D3000487A
:010D31004879
:010D32004878
:010D33004877
:010D34004876
:010D35004875
:010D36004874
:010D37004873
:010D38004872
:010D39004871
:010D3A004870
:010D3B00486F
:010D3C00486E
:010D3D00486D
:010D3E00486C
:010D3F00486B
:010D4000486A
:010D41004170
:010D4200416F
:010D43003F70
:010D44003A74
:010D45003A73
:010D46003A72
:010D47003972
:010D48003872
:010D49003871
:010D4A003870
:010D4B00386F
:010D4C00386E
:010D4D00386D
:010D4E00386C
:010D4F00386B
:010D5000386A
:010D51003869
:010D52003868
:010D53003867
:010D54002876
:010D55002776
:010D56002775
:010D57002774
:010D58002971
:010D59002F6A
:010D5A002F69
:010D5B002F68
:010D5C002F67
:010D5D003164
:010D5E003163
:010D5F003162
:010D60003260
:010D6100325F
:010D6200335D
:010D6300335C
:010D6400335B
:010D65003459
:010D66003458
:010D67003556
:010D68003555
:010D69003554
:010D6A003652
:010D6B003750
:010D6C00384E
:010D6D00384D
:010D6E00384C
:010D6F00384B
:010D7000384A
:010D71003849
:010D72003848
:010D73003847
:010D74003846
:010D75003845
:010D76003844
:010D77003843
:010D78003842
:010D79003841
:010D7A003840
:010D7B00383F
:010D7C00383E
:010D7D00383D
:010D7E00363E
:010D7F00363D
:010D8000363C
:010D8100363B
:010D8200363A
:010D83003639
:010D84003638
:010D85003835
:010D86003834
:010D87003833
:010D88003832
:010D89003831
:010D8A003C2C
:010D8B003C2B
:010D8C003C2A
:010D8D003C29
:010D8E003C28
:010D8F003C27
:010D90003C26
:010D91003C25
:010D92003C24
:010D93003C23
:010D94003C22
:010D95003C21
:010D96003C20
:010D97003C1F
:010D98003C1E
:010D99003C1D
:010D9A003C1C
:010D9B003C1B
:010D9C003C1A
:010D9D003C19
:010D9E003C18
:010D9F003C17
:010DA0003B17
:010DA1003B16
:010DA2003B15
:010DA3003B14
:010DA4003B13
:010DA5003B12
:010DA6003A12
:010DA7003A11
:010DA8003A10
:010DA9003811
:010DAA003810
:010DAB00380F
:010DAC00380E
:010DAD00380D
:010DAE00380C
:010DAF00380B
:010DB000380A
:010DB1003809
:010DB2003808
:010DB300330C
:010DB400330B
:010DB500300D
:010DB600300C
:010DB700300B
:010DB800300A
:010DB9003009
:010DBA003008
:010DBB003007
:010DBC003006
:010DBD002F06
:010DBE002F05
:010DBF003003
:010DC0003002
:010DC1003001
:010DC2003000
:010DC30030FF
:010DC40030FE
:010DC50030FD
:010DC60030FC
:010DC70030FB
:010DC80030FA
:010DC90030F9
:010DCA0030F8
:010DCB0030F7
:010DCC0030F6
:010DCD0030F5
:010DCE0030F4
:010DCF0030F3
:010DD00030F2
:010DD10030F1
:010DD20030F0
:010DD30030EF
:010DD40030EE
:010DD50030ED
:010DD60030EC
:010DD70030EB
:010DD80030EA
:010DD90030E9
:010DDA0030E8
:010DDB0030E7
:010DDC0030E6
:010DDD0030E5
:010DDE0030E4
:010DDF0030E3
:010DE00030E2
:010DE10030E1
:010DE20030E0
:010DE30030DF
:010DE40030DE
:010DE50031DC
:010DE60031DB
:010DE70031DA
:010DE80031D9
:010DE90031D8
:010DEA0031D7
:010DEB0032D5
:010DEC0032D4
:010DED0032D3
:010DEE0032D2
:010DEF0033D0
:010DF00033CF
:010DF10033CE
:010DF20036CA
:010DF30036C9
:010DF40036C8
:010DF50036C7
:010DF60036C6
:010DF70036C5
:010DF80036C4
:010DF90036C3
:010DFA0036C2
:010DFB0036C1
:010DFC0036C0
:010DFD0036BF
:010DFE0036BE
:010DFF0036BD
:010E000036BB
:010E010036BA
:010E020036B9
:010E030036B8
:010E040036B7
:010E050035B7
:010E060035B6
:010E070036B4
:010E080036B3
:010E090036B2
:010E0A0036B1
:010E0B0036B0
:010E0C0036AF
:010E0D0036AE
:010E0E0036AD
:010E0F0036AC
:010E100036AB
:010E110037A9
:010E120037A8
:010E130037A7
:010E140037A6
:010E150037A5
:010E160037A4
:010E170037A3
:010E180037A2
:010E190037A1
:010E1A0037A0
:010E1B00379F
:010E1C00379E
:010E1D00379D
:010E1E00389B
:010E1F00389A
:010E20003899
:010E21003898
:010E22003897
:010E23003896
:010E24003895
:010E25003894
:010E26003893
:010E27003892
:010E28003891
:010E29003890
:010E2A00388F
:010E2B00388E
:010E2C00388D
:010E2D00388C
:010E2E00388B
:010E2F00388A
:010E3000378A
:010E31003789
:010E32003788
:010E33003787
:010E34003786
:010E35003785
:010E36003784
:010E37003783
:010E38003782
:010E39003781
:010E3A003780
:010E3B00377F
:010E3C00377E
:010E3D00377D
:010E3E00377C
:010E3F00377B
:010E4000377A
:010E41003779
:010E42003778
:010E43003A74
:010E44003A73
:010E45003D6F
:010E46003E6D
:010E4700406A
:010E48004168
:010E49004464
:010E4A004661
:010E4B00485E
:010E4C00485D
:010E4D00485C
:010E4E00485B
:010E4F00485A
:010E50004859
:010E51004858
:010E52004857
:010E53004856
:010E54004855
:010E55004854
:010E56004853
:010E57004852
:010E58004851
:010E59004850
:010E5A00484F
:010E5B00484E
:010E5C00484D
:010E5D004252
:010E5E004251
:010E5F003F53
:010E60003A57
:010E61003A56
:010E62003A55
:010E63003955
:010E64003954
:010E65003953
:010E66003952
:010E67003852
:010E68003851
:010E69003850
:010E6A00384F
:010E6B00384E
:010E6C00384D
:010E6D00384C
:010E6E00384B
:010E6F00384A
:010E70002859
:010E7100146C
:010E72001D62
:010E7300235B
:010E74002954
:010E75002F4D
:010E76002F4C
:010E77002F4B
:010E78002F4A
:010E79003147
:010E7A003146
:010E7B003145
:010E7C003243
:010E7D003242
:010E7E003340
:010E7F00333F
:010E8000333E
:010E8100333D
:010E8200333C
:010E83003539
:010E84003538
:010E85003537
:010E86003635
:010E87003733
:010E88003831
:010E89003830
:010E8A00382F
:010E8B00382E
:010E8C00382D
:010E8D00382C
:010E8E00382B
:010E8F00382A
:010E90003829
:010E91003828
:010E92003827
:010E93003826
:010E94003825
:010E95003824
:010E96003823
:010E97003822
:010E98003821
:010E99003820
:010E9A003621
:010E9B003620
:010E9C00361F
:010E9D00361E
:010E9E00361D
:010E9F00361C
:010EA000361B
:010EA1003818
:010EA2003817
:010EA3003816
:010EA4003815
:010EA5003814
:010EA6003B10
:010EA7003B0F
:010EA8003C0D
:010EA9003C0C
:010EAA003C0B
:010EAB003C0A
:010EAC003C09
:010EAD003C08
:010EAE003C07
:010EAF003C06
:010EB0003C05
:010EB1003C04
:010EB2003C03
:010EB3003C02
:010EB4003C01
:010EB5003C00
:010EB6003CFF
:010EB7003CFE
:010EB8003CFD
:010EB9003CFC
:010EBA003CFB
:010EBB003CFA
:010EBC003BFA
:010EBD003BF9
:010EBE003BF8
:010EBF003BF7
:010EC0003BF6
:010EC1003BF5
:010EC2003AF5
:010EC3003AF4
:010EC40039F4
:010EC50035F7
:010EC60035F6
:010EC70035F5
:010EC80034F5
:010EC90033F5
:010ECA0033F4
:010ECB0033F3
:010ECC0033F2
:010ECD0033F1
:010ECE0033F0
:010ECF0033EF
:010ED00033EE
:010ED10030F0
:010ED20030EF
:010ED30030EE
:010ED40030ED
:010ED50030EC
:010ED60030EB
:010ED70030EA
:010ED80030E9
:010ED9002FE9
:010EDA002FE8
:010EDB0030E6
:010EDC0030E5
:010EDD0030E4
:010EDE0030E3
:010EDF0030E2
:010EE00030E1
:010EE10030E0
:010EE20030DF
:010EE30030DE
:010EE40030DD
:010EE50030DC
:010EE60030DB
:010EE70030DA
:010EE80030D9
:010EE90030D8
:010EEA0030D7
:010EEB0030D6
:010EEC0030D5
:010EED0030D4
:010EEE0030D3
:010EEF0030D2
:010EF00030D1
:010EF10030D0
:010EF20030CF
:010EF30030CE
:010EF40030CD
:010EF50030CC
:010EF60030CB
:010EF70030CA
:010EF80030C9
:010EF90030C8
:010EFA0030C7
:010EFB0030C6
:010EFC0030C5
:010EFD0030C4
:010EFE0030C3
:010EFF0030C2
:010F000030C0
:010F010031BE
:010F020031BD
:010F030031BC
:010F040031BB
:010F050031BA
:010F060031B9
:010F070031B8
:010F080031B7
:010F090031B6
:010F0A0031B5
:010F0B0031B4
:010F0C0031B3
:010F0D0031B2
:010F0E0036AC
:010F0F0036AB
:010F100036AA
:010F110036A9
:010F120036A8
:010F130036A7
:010F140036A6
:010F150036A5
:010F160036A4
:010F170036A3
:010F180036A2
:010F190036A1
:010F1A0036A0
:010F1B00369F
:010F1C00369E
:010F1D00369D
:010F1E00369C
:010F1F00369B
:010F2000369A
:010F2100359A
:010F22003599
:010F23003697
:010F24003696
:010F25003695
:010F26003694
:010F27003693
:010F28003692
:010F29003691
:010F2A003690
:010F2B00368F
:010F2C00368E
:010F2D00378C
:010F2E00378B
:010F2F00378A
:010F30003789
:010F31003788
:010F32003787
:010F33003786
:010F34003785
:010F35003784
:010F36003783
:010F37003782
:010F38003781
:010F39003780
:010F3A00387E
:010F3B00387D
:010F3C00387C
:010F3D00387B
:010F3E00387A
:010F3F003879
:010F40003878
:010F41003877
:010F42003876
:010F43003875
:010F44003874
:010F45003873
:010F46003872
:010F47003871
:010F48003870
:010F4900386F
:010F4A00386E
:010F4B00386D
:010F4C00376D
:010F4D00376C
:010F4E00376B
:010F4F00376A
:010F50003769
:010F51003768
:010F52003767
:010F53003766
:010F54003765
:010F55003764
:010F56003763
:010F57003762
:010F58003761
:010F59003760
:010F5A00375F
:010F5B00375E
:010F5C00375D
:010F5D00375C
:010F5E00375B
:010F5F003A57
:010F60003A56
:010F61003D52
:010F62003E50
:010F6300404D
:010F6400414B
:010F65004447
:010F66004644
:010F67004841
:010F68004840
:010F6900483F
:010F6A00483E
:010F6B00483D
:010F6C00483C
:010F6D00483B
:010F6E00483A
:010F6F004839
:010F70004838
:010F71004837
:010F72004836
:010F73004835
:010F74004834
:010F75004833
:010F76004832
:010F77004831
:010F78004830
:010F79004235
:010F7A004234
:010F7B003F36
:010F7C003A3A
:010F7D003A39
:010F7E003A38
:010F7F003938
:010F80003937
:010F81003936
:010F82003935
:010F83003934
:010F84003933
:010F85003932
:010F86003931
:010F87003831
:010F88003830
:010F8900382F
:010F8A00382E
:010F8B00382D
:010F8C003133
:010F8D003132
:010F8E003131
:010F8F003130
:010F9000312F
:010F9100312E
:010F9200312D
:010F9300312C
:010F9400312B
:010F9500312A
:010F96003129
:010F97003128
:010F98003226
:010F99003225
:010F9A003323
:010F9B003322
:010F9C003321
:010F9D003320
:010F9E00331F
:010F9F00351C
:010FA000351B
:010FA100351A
:010FA2003618
:010FA3003716
:010FA4003814
:010FA5003813
:010FA6003812
:010FA7003811
:010FA8003810
:010FA900380F
:010FAA00380E
:010FAB00380D
:010FAC00380C
:010FAD00380B
:010FAE00380A
:010FAF003809
:010FB0003808
:010FB1003807
:010FB2003806
:010FB3003805
:010FB4003804
:010FB5003803
:010FB6003604
:010FB7003603
:010FB8003602
:010FB9003601
:010FBA003600
:010FBB0036FF
:010FBC0036FE
:010FBD0036FD
:010FBE0036FC
:010FBF0036FB
:010FC00036FA
:010FC10036F9
:010FC20036F8
:010FC30036F7
:010FC40035F7
:010FC50034F7
:010FC60036F4
:010FC70036F3
:010FC80036F2
:010FC9003AED
:010FCA003BEB
:010FCB003BEA
:010FCC003BE9
:010FCD003BE8
:010FCE003BE7
:010FCF003BE6
:010FD0003BE5
:010FD1003BE4
:010FD2003BE3
:010FD3003BE2
:010FD4003BE1
:010FD5003BE0
:010FD6003BDF
:010FD7003BDE
:010FD8003BDD
:010FD9003BDC
:010FDA003BDB
:010FDB003BDA
:010FDC003BD9
:010FDD003BD8
:010FDE003AD8
:010FDF0039D8
:010FE00035DB
:010FE10033DC
:010FE20033DB
:010FE30033DA
:010FE40033D9
:010FE50033D8
:010FE60033D7
:010FE70033D6
:010FE80033D5
:010FE90031D6
:010FEA0031D5
:010FEB0031D4
:010FEC0031D3
:010FED0030D3
:010FEE0030D2
:010FEF0030D1
:010FF00030D0
:010FF10030CF
:010FF20030CE
:010FF30030CD
:010FF40030CC
:010FF5002FCC
:010FF6002FCB
:010FF70030C9
:010FF80030C8
:010FF90030C7
:010FFA0030C6
:010FFB0030C5
:010FFC0030C4
:010FFD0030C3
:010FFE0030C2
:010FFF0030C1
:0110000030BF
:0110010030BE
:0110020030BD
:0110030030BC
:0110040030BB
:0110050030BA
:0110060030B9
:0110070030B8
:0110080030B7
:0110090030B6
:01100A002FB6
:01100B002FB5
:01100C002FB4
:01100D002FB3
:01100E002DB4
:01100F002EB2
:011010002EB1
:011011002EB0
:011012002EAF
:011013002EAE
:011014002EAD
:011015002EAC
:011016002EAB
:011017002EAA
:011018002EA9
:011019002EA8
:01101A002EA7
:01101B002EA6
:01101C002EA5
:01101D002EA4
:01101E002EA3
:01101F002EA2
:011020002EA1
:011021002DA1
:011022002DA0
:011023002D9F
:011024002D9E
:011025002D9D
:011026002D9C
:011027002D9B
:011028002D9A
:011029002D99
:01102A002D98
:01102B002D97
:01102C002C97
:01102D002C96
:01102E002E93
:01102F002E92
:011030002E91
:011031002E90
:011032002E8F
:011033002E8E
:011034002E8D
:011035002E8C
:011036002E8B
:011037002E8A
:011038002E89
:011039002E88
:01103A002E87
:01103B002E86
:01103C002E85
:01103D002E84
:01103E002E83
:01103F002E82
:011040002E81
:011041002D81
:011042002D80
:011043002D7F
:011044002C7F
:011045002C7E
:011046002C7D
:011047002C7C
:011048002C7B
:011049002C7A
:01104A002C79
:01104B002C78
:01104C002C77
:01104D002C76
:01104E002C75
:01104F002D73
:011050002D72
:011051002E70
:011052002E6F
:011053002E6E
:011054002E6D
:011055002E6C
:011056002E6B
:011057002E6A
:011058002E69
:011059003165
:01105A003164
:01105B003163
:01105C003162
:01105D003161
:01105E003160
:01105F00335D
:01106000335C
:01106100335B
:011062003459
:011063003458
:011064003457
:011065003456
:011066003455
:011067003454
:011068003453
:01106900374F
:01106A00374E
:01106B00374D
:01106C00374C
:01106D00374B
:01106E00374A
:01106F003749
:011070003748
:011071003747
:011072003746
:011073003745
:011074003744
:011075003743
:011076003742
:011077003741
:011078003740
:01107900373F
:01107A00373E
:01107B003A3A
:01107C003A39
:01107D003D35
:01107E003E33
:01107F004030
:01108000412E
:01108100442A
:011082004627
:011083004824
:011084004823
:011085004822
:011086004821
:011087004820
:01108800481F
:01108900481E
:01108A00481D
:01108B00481C
:01108C00481B
:01108D00481A
:01108E004819
:01108F004818
:011090004817
:011091004816
:011092004815
:011093004814
:011094004813
:011095004218
:011096004217
:011097003F19
:011098003A1D
:011099003A1C
:01109A003A1B
:01109B00391B
:01109C00391A
:01109D003919
:01109E003918
:01109F003917
:0110A0003916
:0110A1003915
:0110A2003914
:0110A3003814
:0110A4003813
:0110A5003812
:0110A6003811
:0110A7003810
:0110A8003116
:0110A9003115
:0110AA003114
:0110AB003113
:0110AC003112
:0110AD003111
:0110AE003110
:0110AF00310F
:0110B000310E
:0110B100310D
:0110B200310C
:0110B300310B
:0110B4003209
:0110B5003208
:0110B6003207
:0110B7003206
:0110B8003205
:0110B9003204
:0110BA003302
:0110BB003301
:0110BC003300
:0110BD0033FF
:0110BE0033FE
:0110BF0033FD
:0110C00033FC
:0110C10033FB
:0110C20033FA
:0110C30033F9
:0110C40033F8
:0110C50033F7
:0110C60033F6
:0110C70033F5
:0110C80033F4
:0110C90033F3
:0110CA0033F2
:0110CB0035EF
:0110CC0035EE
:0110CD0035ED
:0110CE0035EC
:0110CF0035EB
:0110D00035EA
:0110D10035E9
:0110D20035E8
:0110D30035E7
:0110D40035E6
:0110D50035E5
:0110D60035E4
:0110D70035E3
:0110D80035E2
:0110D90035E1
:0110DA0035E0
:0110DB0035DF
:0110DC0035DE
:0110DD0035DD
:0110DE0035DC
:0110DF0035DB
:0110E00034DB
:0110E10030DE
:0110E20033DA
:0110E30033D9
:0110E40033D8
:0110E50034D6
:0110E60034D5
:0110E70034D4
:0110E80034D3
:0110E90034D2
:0110EA0034D1
:0110EB0034D0
:0110EC0034CF
:0110ED0034CE
:0110EE0034CD
:0110EF0034CC
:0110F00034CB
:0110F10034CA
:0110F20034C9
:0110F30034C8
:0110F40034C7
:0110F50034C6
:0110F60034C5
:0110F70034C4
:0110F80031C6
:0110F90030C6
:0110FA0030C5
:0110FB0030C4
:0110FC002DC6
:0110FD002DC5
:0110FE002DC4
:0110FF002DC3
:011100002CC2
:011101002CC1
:011102002CC0
:011103002CBF
:011104002BBF
:011105002BBE
:011106002ABE
:011107002ABD
:0111080028BE
:0111090028BD
:01110A0028BC
:01110B0028BB
:01110C0028BA
:01110D0028B9
:01110E0028B8
:01110F0028B7
:0111100028B6
:0111110028B5
:0111120028B4
:0111130028B3
:0111140028B2
:0111150028B1
:0111160028B0
:0111170028AF
:0111180028AE
:0111190028AD
:01111A0028AC
:01111B0028AB
:01111C0028AA
:01111D0023AE
:01111E0023AD
:01111F0023AC
:0111200023AB
:0111210023AA
:0111220023A9
:0111230023A8
:0111240023A7
:0111250023A6
:0111260023A5
:0111270023A4
:0111280023A3
:0111290023A2
:01112A0022A2
:01112B0022A1
:01112C0022A0
:01112D00229F
:01112E00229E
:01112F00229D
:01113000229C
:01113100229B
:01113200229A
:011133002299
:011134002298
:011135002297
:011136002296
:011137001F98
:011138001F97
:011139001F96
:01113A001F95
:01113B001F94
:01113C001E94
:01113D001E93
:01113E001E92
:01113F001E91
:011140001E90
:011141001E8F
:011142001E8E
:011143001E8D
:011144001E8C
:011145001C8D
:011146001C8C
:011147001C8B
:011148001C8A
:011149001C89
:01114A001C88
:01114B001C87
:01114C001B87
:01114D001B86
:01114E001B85
:01114F001B84
:011150001B83
:011151001B82
:011152001B81
:011153001B80
:011154001B7F
:011155001B7E
:011156001B7D
:011157001B7C
:011158001B7B
:011159001B7A
:01115A001B79
:01115B001B78
:01115C001B77
:01115D001B76
:01115E001B75
:01115F001C73
:011160001C72
:011161001C71
:011162001C70
:011163001C6F
:011164001C6E
:011165001C6D
:011166001C6C
:011167001C6B
:011168001C6A
:011169001C69
:01116A001C68
:01116B001C67
:01116C001C66
:01116D001C65
:01116E001C64
:01116F001E61
:011170001E60
:011171001E5F
:011172001E5E
:011173001E5D
:011174001E5C
:011175001E5B
:011176001E5A
:011177001E59
:011178001E58
:011179001F56
:01117A002054
:01117B002053
:01117C002052
:01117D00234E
:01117E00234D
:01117F00244B
:011180002549
:011181002548
:011182002547
:011183002546
:011184002545
:011185002544
:011186002741
:01118700283F
:01118800283E
:01118900283D
:01118A002B39
:01118B002B38
:01118C002B37
:01118D002B36
:01118E002B35
:01118F002C33
:01119000302E
:01119100322B
:01119200322A
:011193003328
:011194003525
:011195003722
:011196003721
:011197003A1D
:011198003A1C
:011199003D18
:01119A003E16
:01119B004013
:01119C004111
:01119D00440D
:01119E00460A
:01119F004807
:0111A0004806
:0111A1004805
:0111A2004804
:0111A3004803
:0111A4004802
:0111A5004801
:0111A6004800
:0111A70048FF
:0111A80048FE
:0111A90048FD
:0111AA0048FC
:0111AB0048FB
:0111AC0048FA
:0111AD0048F9
:0111AE0048F8
:0111AF0048F7
:0111B00048F6
:0111B10042FB
:0111B20042FA
:0111B3003FFC
:0111B4003A00
:0111B5003AFF
:0111B6003AFE
:0111B70039FE
:0111B80039FD
:0111B90039FC
:0111BA0039FB
:0111BB0039FA
:0111BC0039F9
:0111BD0039F8
:0111BE0039F7
:0111BF0038F7
:0111C00038F6
:0111C10038F5
:0111C20038F4
:0111C30038F3
:0111C40031F9
:0111C50031F8
:0111C60031F7
:0111C70031F6
:0111C80031F5
:0111C90031F4
:0111CA0031F3
:0111CB0031F2
:0111CC0031F1
:0111CD0031F0
:0111CE0031EF
:0111CF0031EE
:0111D00032EC
:0111D10032EB
:0111D20032EA
:0111D30032E9
:0111D40032E8
:0111D50032E7
:0111D60033E5
:0111D70033E4
:0111D80033E3
:0111D90033E2
:0111DA0033E1
