:010000004EB1
:010001004EB0
:010002004EAF
:010003004EAE
:010004004EAD
:010005004EAC
:010006004EAB
:010007004EAA
:010008004EA9
:010009004EA8
:01000A004EA7
:01000B004EA6
:01000C004EA5
:01000D004EA4
:01000E004EA3
:01000F004EA2
:010010004EA1
:010011004EA0
:010012004E9F
:010013004E9E
:010014004E9D
:010015004E9C
:0100160032B7
:010017002EBA
:0100180034B3
:0100190034B2
:01001A0034B1
:01001B0036AE
:01001C0036AD
:01001D0037AB
:01001E0037AA
:01001F0037A9
:0100200037A8
:0100210037A7
:0100220037A6
:0100230038A4
:0100240038A3
:0100250038A2
:0100260038A1
:0100270038A0
:01002800389F
:01002900389E
:01002A00389D
:01002B00389C
:01002C00389B
:01002D00389A
:01002E003899
:01002F003898
:010030003897
:010031003896
:010032003895
:010033003894
:010034003893
:010035003892
:010036003891
:010037003890
:01003800388F
:01003900378F
:01003A00378E
:01003B00378D
:01003C00378C
:01003D00378B
:01003E00378A
:01003F003789
:010040003788
:010041003787
:010042003786
:010043003785
:010044003784
:010045003783
:010046003782
:010047003781
:010048003780
:01004900377F
:01004A00377E
:01004B00377D
:01004C00377C
:01004D00377B
:01004E00377A
:01004F003779
:010050003877
:010051003876
:010052003875
:010053003874
:010054003873
:010055003872
:010056003871
:010057003870
:01005800386F
:01005900386E
:01005A00386D
:01005B00386C
:01005C00386B
:01005D00386A
:01005E003869
:01005F003868
:010060003867
:010061003866
:010062003865
:010063003864
:010064003863
:010065003862
:010066003861
:010067003860
:01006800385F
:01006900385E
:01006A00375E
:01006B00375D
:01006C00375C
:01006D00375B
:01006E00375A
:01006F003759
:010070003758
:010071003757
:010072003756
:010073003755
:010074003754
:010075003753
:010076003752
:010077003751
:010078003750
:01007900374F
:01007A00374E
:01007B00374D
:01007C00374C
:01007D00374B
:01007E00374A
:01007F003749
:010080003649
:010081003648
:010082003647
:010083003646
:010084003645
:010085003644
:010086003643
:010087003642
:010088003542
:010089003541
:01008A003540
:01008B00353F
:01008C00353E
:01008D00343E
:01008E00333E
:01008F00333D
:01009000333C
:01009100333B
:01009200333A
:010093003339
:010094003338
:010095003337
:010096003336
:010097003335
:010098003334
:010099003333
:01009A003332
:01009B00372D
:01009C00372C
:01009D00372B
:01009E00372A
:01009F003729
:0100A0003728
:0100A1003727
:0100A2003726
:0100A3003725
:0100A4003724
:0100A5003723
:0100A6003722
:0100A7003721
:0100A8003720
:0100A900371F
:0100AA00371E
:0100AB00371D
:0100AC00371C
:0100AD00371B
:0100AE00351C
:0100AF00351B
:0100B000351A
:0100B1003519
:0100B2003518
:0100B3003517
:0100B4003516
:0100B5003515
:0100B6003514
:0100B7003513
:0100B8003512
:0100B9003610
:0100BA00360F
:0100BB00360E
:0100BC00360D
:0100BD00360C
:0100BE00360B
:0100BF00360A
:0100C0003609
:0100C1003608
:0100C2003607
:0100C3003606
:0100C4003605
:0100C5003604
:0100C6003603
:0100C7003602
:0100C8003601
:0100C9003600
:0100CA0036FF
:0100CB0036FE
:0100CC0036FD
:0100CD0036FC
:0100CE0036FB
:0100CF0036FA
:0100D00036F9
:0100D10036F8
:0100D20036F7
:0100D30036F6
:0100D40036F5
:0100D50036F4
:0100D60036F3
:0100D70036F2
:0100D80036F1
:0100D90036F0
:0100DA0036EF
:0100DB0036EE
:0100DC0036ED
:0100DD0036EC
:0100DE0036EB
:0100DF0036EA
:0100E00036E9
:0100E10036E8
:0100E20036E7
:0100E30036E6
:0100E40036E5
:0100E50036E4
:0100E60036E3
:0100E70035E3
:0100E80036E1
:0100E90036E0
:0100EA0036DF
:0100EB0036DE
:0100EC0036DD
:0100ED0036DC
:0100EE0037DA
:0100EF0037D9
:0100F00037D8
:0100F10037D7
:0100F20037D6
:0100F3003BD1
:0100F4003FCC
:0100F50041C9
:0100F60041C8
:0100F70041C7
:0100F80041C6
:0100F90045C1
:0100FA0049BC
:0100FB004BB9
:0100FC0050B3
:0100FD005FA3
:0100FE00629F
:0100FF007789
:010100007787
:010101007786
:010102007785
:010103007784
:010104007783
:010105007782
:010106007781
:010107007780
:01010800777F
:01010900777E
:01010A00777D
:01010B00777C
:01010C00777B
:01010D00777A
:01010E007779
:01010F007778
:010110007777
:010111007776
:010112007775
:010113007378
:010114007377
:010115007376
:010116006F79
:010117006681
:010118005E88
:010119005194
:01011A004E96
:01011B004B98
:01011C004E94
:01011D004E93
:01011E004E92
:01011F004E91
:010120004E90
:010121004E8F
:010122004E8E
:010123004E8D
:010124004E8C
:010125004E8B
:010126004E8A
:010127004E89
:010128004E88
:010129004E87
:01012A004E86
:01012B004E85
:01012C004E84
:01012D004E83
:01012E004E82
:01012F004E81
:010130004E80
:0101310025A8
:010132003498
:010133003497
:010134003496
:010135003495
:010136003494
:010137003691
:010138003690
:01013900378E
:01013A00378D
:01013B00378C
:01013C00378B
:01013D00378A
:01013E003789
:01013F003887
:010140003886
:010141003885
:010142003884
:010143003883
:010144003882
:010145003881
:010146003880
:01014700387F
:01014800387E
:01014900387D
:01014A00387C
:01014B00387B
:01014C00387A
:01014D003879
:01014E003878
:01014F003877
:010150003876
:010151003875
:010152003874
:010153003873
:010154003872
:010155003772
:010156003771
:010157003770
:01015800376F
:01015900376E
:01015A00376D
:01015B00376C
:01015C00376B
:01015D00376A
:01015E003769
:01015F003867
:010160003866
:010161003865
:010162003864
:010163003863
:010164003862
:010165003861
:010166003860
:01016700385F
:01016800385E
:01016900385D
:01016A00385C
:01016B00385B
:01016C00385A
:01016D003859
:01016E003858
:01016F003857
:010170003856
:010171003855
:010172003854
:010173003853
:010174003852
:010175003851
:010176003850
:01017700384F
:01017800384E
:01017900384D
:01017A00384C
:01017B00384B
:01017C00384A
:01017D003849
:01017E003848
:01017F003847
:010180003846
:010181003845
:010182003844
:010183003843
:010184003842
:010185003841
:010186003741
:010187003740
:01018800373F
:01018900373E
:01018A00373D
:01018B00373C
:01018C00373B
:01018D00373A
:01018E003739
:01018F003738
:010190003737
:010191003736
:010192003735
:010193003734
:010194003733
:010195003732
:010196003731
:010197003730
:01019800372F
:01019900372E
:01019A00372D
:01019B00372C
:01019C00362C
:01019D00362B
:01019E00362A
:01019F003629
:0101A0003628
:0101A1003627
:0101A2003626
:0101A3003625
:0101A4003525
:0101A5003524
:0101A6003523
:0101A7003522
:0101A8003521
:0101A9003421
:0101AA003321
:0101AB003320
:0101AC00331F
:0101AD00331E
:0101AE00331D
:0101AF00331C
:0101B000331B
:0101B100331A
:0101B2003319
:0101B3003318
:0101B4003317
:0101B5003316
:0101B6003315
:0101B7003710
:0101B800370F
:0101B900370E
:0101BA00370D
:0101BB00370C
:0101BC00370B
:0101BD00370A
:0101BE003709
:0101BF003708
:0101C0003707
:0101C1003706
:0101C2003705
:0101C3003704
:0101C4003703
:0101C5003702
:0101C6003701
:0101C7003700
:0101C80037FF
:0101C90037FE
:0101CA0035FF
:0101CB0035FE
:0101CC0035FD
:0101CD0035FC
:0101CE0035FB
:0101CF0035FA
:0101D00035F9
:0101D10035F8
:0101D20035F7
:0101D30035F6
:0101D40035F5
:0101D50036F3
:0101D60036F2
:0101D70036F1
:0101D80036F0
:0101D90036EF
:0101DA0036EE
:0101DB0036ED
:0101DC0036EC
:0101DD0036EB
:0101DE0036EA
:0101DF0036E9
:0101E00036E8
:0101E10036E7
:0101E20036E6
:0101E30036E5
:0101E40036E4
:0101E50036E3
:0101E60036E2
:0101E70036E1
:0101E80036E0
:0101E90036DF
:0101EA0036DE
:0101EB0036DD
:0101EC0036DC
:0101ED0036DB
:0101EE0036DA
:0101EF0036D9
:0101F00036D8
:0101F10036D7
:0101F20036D6
:0101F30036D5
:0101F40036D4
:0101F50036D3
:0101F60036D2
:0101F70036D1
:0101F80036D0
:0101F90036CF
:0101FA0036CE
:0101FB0036CD
:0101FC0036CC
:0101FD0036CB
:0101FE0036CA
:0101FF0036C9
:0102000036C7
:0102010036C6
:0102020036C5
:0102030035C5
:0102040036C3
:0102050036C2
:0102060036C1
:0102070036C0
:0102080036BF
:0102090036BE
:01020A0037BC
:01020B0037BB
:01020C0039B8
:01020D003AB6
:01020E003AB5
:01020F003DB1
:010210003FAE
:0102110041AB
:0102120041AA
:0102130041A9
:0102140041A8
:0102150045A3
:01021600499E
:010217004B9B
:010218005095
:010219005B89
:01021A006281
:01021B00746E
:01021C00776A
:01021D007769
:01021E007768
:01021F007767
:010220007766
:010221007765
:010222007764
:010223007763
:010224007762
:010225007761
:010226007760
:01022700775F
:01022800775E
:01022900775D
:01022A00775C
:01022B00775B
:01022C00775A
:01022D007759
:01022E007758
:01022F006F5F
:010230006F5E
:010231006D5F
:010232006D5E
:010233006664
:010234005E6B
:010235005177
:010236004E79
:010237004B7B
:010238004C79
:010239004C78
:01023A004C77
:01023B004C76
:01023C004C75
:01023D004C74
:01023E004C73
:01023F004C72
:010240004C71
:010241004C70
:010242004C6F
:010243004C6E
:010244004A6F
:010245004573
:010246004572
:010247004571
:010248004570
:01024900456F
:01024A00456E
:01024B00387A
:01024C00337E
:01024D00347C
:01024E00347B
:01024F00347A
:010250003479
:010251003478
:010252003477
:010253003674
:010254003673
:010255003771
:010256003770
:01025700376F
:01025800376E
:01025900376D
:01025A00376C
:01025B00386A
:01025C003869
:01025D003868
:01025E003867
:01025F003866
:010260003865
:010261003864
:010262003863
:010263003862
:010264003861
:010265003860
:01026600385F
:01026700385E
:01026800385D
:01026900385C
:01026A00385B
:01026B00385A
:01026C003859
:01026D003858
:01026E003857
:01026F003C52
:010270003C51
:010271003C50
:010272003C4F
:010273003F4B
:010274003F4A
:010275003F49
:010276003F48
:010277003F47
:010278003F46
:010279003F45
:01027A003F44
:01027B003F43
:01027C003F42
:01027D003F41
:01027E003F40
:01027F003F3F
:010280003F3E
:010281003F3D
:010282003F3C
:010283003F3B
:010284003F3A
:010285003F39
:010286003F38
:010287003F37
:010288003F36
:010289003B39
:01028A003B38
:01028B003A38
:01028C003A37
:01028D003A36
:01028E003837
:01028F003836
:010290003835
:010291003834
:010292003833
:010293003832
:010294003831
:010295003830
:01029600382F
:01029700382E
:01029800382D
:01029900382C
:01029A00382B
:01029B00382A
:01029C003829
:01029D003828
:01029E003827
:01029F003826
:0102A0003825
:0102A1003824
:0102A2003724
:0102A3003723
:0102A4003722
:0102A5003721
:0102A6003720
:0102A700371F
:0102A800371E
:0102A900371D
:0102AA00371C
:0102AB00371B
:0102AC00371A
:0102AD003719
:0102AE003718
:0102AF003717
:0102B0003716
:0102B1003715
:0102B2003714
:0102B3003713
:0102B4003712
:0102B5003711
:0102B6003710
:0102B700370F
:0102B800360F
:0102B900360E
:0102BA00360D
:0102BB00360C
:0102BC00360B
:0102BD00360A
:0102BE003609
:0102BF003608
:0102C0003508
:0102C1003507
:0102C2003506
:0102C3003505
:0102C4003504
:0102C5003404
:0102C6003304
:0102C7003303
:0102C8003302
:0102C9003301
:0102CA003300
:0102CB0033FF
:0102CC0033FE
:0102CD0033FD
:0102CE0033FC
:0102CF0033FB
:0102D00033FA
:0102D10033F9
:0102D20033F8
:0102D30037F3
:0102D40037F2
:0102D50037F1
:0102D60037F0
:0102D70037EF
:0102D80037EE
:0102D90037ED
:0102DA0037EC
:0102DB0037EB
:0102DC0037EA
:0102DD0037E9
:0102DE0037E8
:0102DF0037E7
:0102E00037E6
:0102E10037E5
:0102E20037E4
:0102E30037E3
:0102E40037E2
:0102E50037E1
:0102E60035E2
:0102E70035E1
:0102E80035E0
:0102E90035DF
:0102EA0035DE
:0102EB0035DD
:0102EC0035DC
:0102ED0035DB
:0102EE0035DA
:0102EF0035D9
:0102F00035D8
:0102F10035D7
:0102F20035D6
:0102F30035D5
:0102F40035D4
:0102F50035D3
:0102F60035D2
:0102F70035D1
:0102F80035D0
:0102F90035CF
:0102FA0035CE
:0102FB0035CD
:0102FC0035CC
:0102FD0035CB
:0102FE0035CA
:0102FF0035C9
:0103000035C7
:0103010035C6
:0103020035C5
:0103030035C4
:0103040035C3
:0103050035C2
:0103060035C1
:0103070035C0
:0103080035BF
:0103090035BE
:01030A0035BD
:01030B0035BC
:01030C0035BB
:01030D0035BA
:01030E0035B9
:01030F0035B8
:0103100035B7
:0103110035B6
:0103120035B5
:0103130035B4
:0103140035B3
:0103150035B2
:0103160035B1
:0103170035B0
:0103180035AF
:0103190035AE
:01031A0035AD
:01031B0035AC
:01031C0035AB
:01031D0035AA
:01031E0034AA
:01031F0035A8
:0103200035A7
:0103210035A6
:0103220035A5
:0103230035A4
:0103240035A3
:0103250035A2
:01032600379F
:01032700379E
:01032800399B
:010329003A99
:01032A003D95
:01032B003D94
:01032C003D93
:01032D00418E
:01032E00418D
:01032F00418C
:01033000418B
:010331004586
:010332004882
:010333004B7E
:010334004E7A
:01033500586F
:010336006264
:010337007154
:010338007153
:010339007152
:01033A007151
:01033B007150
:01033C00714F
:01033D00714E
:01033E00714D
:01033F00714C
:01034000714B
:01034100714A
:010342007149
:010343007148
:010344007147
:010345007146
:010346007145
:010347007144
:010348007143
:010349007142
:01034A007141
:01034B006F42
:01034C006C44
:01034D006C43
:01034E006C42
:01034F006647
:010350005E4E
:01035100515A
:010352004E5C
:010353004B5E
:010354004266
:010355004265
:010356004264
:010357004263
:010358004262
:010359004261
:01035A004260
:01035B00425F
:01035C00425E
:01035D00425D
:01035E00425C
:01035F00425B
:01036000425A
:010361004259
:010362004258
:010363004257
:010364004256
:010365004255
:010366002A6C
:010367003461
:010368003460
:01036900345F
:01036A00345E
:01036B00345D
:01036C00345C
:01036D00345B
:01036E00345A
:01036F003657
:010370003656
:010371003754
:010372003753
:010373003752
:010374003751
:010375003750
:01037600374F
:01037700384D
:01037800384C
:01037900384B
:01037A00384A
:01037B003849
:01037C003848
:01037D003847
:01037E003846
:01037F003845
:010380003844
:010381003843
:010382003842
:010383003841
:010384003840
:01038500383F
:01038600383E
:01038700383D
:01038800383C
:01038900383B
:01038A00383A
:01038B003C35
:01038C003C34
:01038D003C33
:01038E003C32
:01038F003F2E
:010390003F2D
:010391003F2C
:010392003F2B
:010393003F2A
:010394003F29
:010395003F28
:010396003F27
:010397003F26
:010398003F25
:010399003F24
:01039A003F23
:01039B003F22
:01039C003F21
:01039D003F20
:01039E003F1F
:01039F003F1E
:0103A0003F1D
:0103A1003F1C
:0103A2003F1B
:0103A3003F1A
:0103A4003F19
:0103A5003B1C
:0103A6003B1B
:0103A7003A1B
:0103A8003A1A
:0103A9003A19
:0103AA00381A
:0103AB003819
:0103AC003818
:0103AD003817
:0103AE003816
:0103AF003815
:0103B0003814
:0103B1003813
:0103B2003812
:0103B3003811
:0103B4003810
:0103B500380F
:0103B600380E
:0103B700380D
:0103B800380C
:0103B900380B
:0103BA00380A
:0103BB003809
:0103BC003808
:0103BD003807
:0103BE003707
:0103BF003706
:0103C0003705
:0103C1003704
:0103C2003703
:0103C3003702
:0103C4003701
:0103C5003700
:0103C60037FF
:0103C70037FE
:0103C80037FD
:0103C90037FC
:0103CA0037FB
:0103CB0037FA
:0103CC0037F9
:0103CD0037F8
:0103CE0037F7
:0103CF0037F6
:0103D00037F5
:0103D10037F4
:0103D20037F3
:0103D30037F2
:0103D40036F2
:0103D50036F1
:0103D60036F0
:0103D70036EF
:0103D80036EE
:0103D90036ED
:0103DA0036EC
:0103DB0036EB
:0103DC0035EB
:0103DD0035EA
:0103DE0035E9
:0103DF0035E8
:0103E00035E7
:0103E10034E7
:0103E20033E7
:0103E30033E6
:0103E40033E5
:0103E50033E4
:0103E60033E3
:0103E70033E2
:0103E80033E1
:0103E90033E0
:0103EA0033DF
:0103EB0033DE
:0103EC0033DD
:0103ED0033DC
:0103EE0033DB
:0103EF0037D6
:0103F00037D5
:0103F10037D4
:0103F20037D3
:0103F30037D2
:0103F40037D1
:0103F50037D0
:0103F60037CF
:0103F70037CE
:0103F80037CD
:0103F90037CC
:0103FA0037CB
:0103FB0037CA
:0103FC0037C9
:0103FD0037C8
:0103FE0037C7
:0103FF0037C6
:0104000037C4
:0104010037C3
:0104020035C4
:0104030035C3
:0104040035C2
:0104050035C1
:0104060035C0
:0104070035BF
:0104080035BE
:0104090035BD
:01040A0035BC
:01040B0035BB
:01040C0035BA
:01040D0035B9
:01040E0035B8
:01040F0035B7
:0104100035B6
:0104110035B5
:0104120037B2
:0104130037B1
:0104140037B0
:0104150037AF
:0104160037AE
:0104170037AD
:0104180037AC
:0104190037AB
:01041A0037AA
:01041B0037A9
:01041C0037A8
:01041D0037A7
:01041E0037A6
:01041F0037A5
:0104200037A4
:0104210037A3
:0104220037A2
:0104230037A1
:0104240037A0
:01042500379F
:01042600379E
:01042700379D
:01042800379C
:01042900379B
:01042A00379A
:01042B003799
:01042C003798
:01042D003797
:01042E003796
:01042F003795
:010430003794
:010431003793
:010432003792
:010433003791
:010434003790
:01043500378F
:01043600378E
:01043700378D
:01043800378C
:01043900378B
:01043A00378A
:01043B003789
:01043C003788
:01043D003787
:01043E003786
:01043F003785
:010440003784
:010441003783
:010442003782
:010443003781
:010444003A7D
:010445003A7C
:010446003D78
:010447003D77
:010448003D76
:010449004171
:01044A004170
:01044B00416F
:01044C00416E
:01044D00426C
:01044E00426B
:01044F004864
:010450004962
:010451004961
:010452004960
:01045300495F
:01045400495E
:01045500495D
:01045600495C
:01045700495B
:01045800495A
:010459004959
:01045A004958
:01045B004957
:01045C004956
:01045D004955
:01045E004954
:01045F004953
:010460004952
:010461004951
:010462004B4E
:010463004B4D
:010464004B4C
:010465004B4B
:010466004B4A
:010467004B49
:010468004B48
:010469004B47
:01046A004B46
:01046B004B45
:01046C004B44
:01046D004B43
:01046E004B42
:01046F004B41
:010470004249
:010471004248
:010472004247
:010473004246
:010474004245
:010475004244
:010476004243
:010477004242
:010478004241
:010479004240
:01047A00423F
:01047B00423E
:01047C00423D
:01047D00423C
:01047E00423B
:01047F00423A
:010480004239
:010481002D4D
:010482003445
:010483003444
:010484003443
:010485003442
:010486003441
:010487003440
:01048800343F
:01048900363C
:01048A00363B
:01048B00363A
:01048C003639
:01048D003737
:01048E003736
:01048F003735
:010490003734
:010491003733
:010492003732
:010493003830
:01049400382F
:01049500382E
:01049600382D
:01049700382C
:01049800382B
:01049900382A
:01049A003829
:01049B003828
:01049C003827
:01049D003826
:01049E003825
:01049F003824
:0104A0003823
:0104A1003822
:0104A2003821
:0104A3003820
:0104A400381F
:0104A500381E
:0104A600381D
:0104A7003C18
:0104A8003C17
:0104A9003C16
:0104AA003C15
:0104AB003F11
:0104AC003F10
:0104AD003F0F
:0104AE003F0E
:0104AF003F0D
:0104B0003F0C
:0104B1003F0B
:0104B2003F0A
:0104B3003F09
:0104B4003F08
:0104B5003F07
:0104B6003F06
:0104B7003F05
:0104B8003F04
:0104B9003F03
:0104BA003F02
:0104BB003F01
:0104BC003F00
:0104BD003FFF
:0104BE003FFE
:0104BF003FFD
:0104C0003FFC
:0104C1003BFF
:0104C2003BFE
:0104C3003AFE
:0104C4003AFD
:0104C5003AFC
:0104C60038FD
:0104C70038FC
:0104C80038FB
:0104C90038FA
:0104CA0038F9
:0104CB0038F8
:0104CC0038F7
:0104CD0038F6
:0104CE0038F5
:0104CF0038F4
:0104D00038F3
:0104D10038F2
:0104D20038F1
:0104D30038F0
:0104D40038EF
:0104D50038EE
:0104D60038ED
:0104D70038EC
:0104D80038EB
:0104D90038EA
:0104DA0037EA
:0104DB0037E9
:0104DC0037E8
:0104DD0037E7
:0104DE0037E6
:0104DF0037E5
:0104E00037E4
:0104E10037E3
:0104E20037E2
:0104E30037E1
:0104E40037E0
:0104E50037DF
:0104E60037DE
:0104E70037DD
:0104E80037DC
:0104E90037DB
:0104EA0037DA
:0104EB0037D9
:0104EC0037D8
:0104ED0037D7
:0104EE0037D6
:0104EF0037D5
:0104F00036D5
:0104F10036D4
:0104F20036D3
:0104F30036D2
:0104F40036D1
:0104F50036D0
:0104F60036CF
:0104F70036CE
:0104F80035CE
:0104F90035CD
:0104FA0035CC
:0104FB0035CB
:0104FC0035CA
:0104FD0034CA
:0104FE0033CA
:0104FF0033C9
:0105000033C7
:0105010033C6
:0105020033C5
:0105030033C4
:0105040033C3
:0105050033C2
:0105060033C1
:0105070033C0
:0105080033BF
:0105090033BE
:01050A0033BD
:01050B0037B8
:01050C0037B7
:01050D0037B6
:01050E0037B5
:01050F0037B4
:0105100037B3
:0105110037B2
:0105120037B1
:0105130037B0
:0105140037AF
:0105150037AE
:0105160037AD
:0105170037AC
:0105180037AB
:0105190037AA
:01051A0037A9
:01051B0037A8
:01051C0037A7
:01051D0037A6
:01051E0035A7
:01051F0035A6
:0105200035A5
:0105210035A4
:0105220035A3
:0105230035A2
:0105240035A1
:0105250035A0
:01052600359F
:01052700359E
:01052800359D
:01052900359C
:01052A00359B
:01052B00359A
:01052C003599
:01052D003598
:01052E003795
:01052F003794
:010530003793
:010531003792
:010532003791
:010533003790
:01053400378F
:01053500378E
:01053600378D
:01053700378C
:01053800378B
:01053900378A
:01053A003789
:01053B003788
:01053C003787
:01053D003786
:01053E003785
:01053F003784
:010540003783
:010541003782
:010542003781
:010543003780
:01054400377F
:01054500377E
:01054600377D
:01054700377C
:01054800377B
:01054900377A
:01054A003779
:01054B003778
:01054C003777
:01054D003776
:01054E003775
:01054F003774
:010550003773
:010551003772
:010552003771
:010553003770
:01055400376F
:01055500376E
:01055600376D
:01055700376C
:01055800376B
:01055900376A
:01055A003769
:01055B003768
:01055C003767
:01055D003766
:01055E003765
:01055F003764
:010560003A60
:010561003A5F
:010562003D5B
:010563003E59
:010564003E58
:010565004055
:010566004054
:010567004053
:010568004052
:010569004051
:01056A004050
:01056B00404F
:01056C00404E
:01056D00404D
:01056E00404C
:01056F00404B
:01057000404A
:010571004049
:010572004048
:010573004047
:010574004046
:010575004045
:010576004044
:010577004043
:010578004042
:010579004041
:01057A004040
:01057B00403F
:01057C00403E
:01057D003F3E
:01057E003F3D
:01057F003F3C
:010580003F3B
:010581003F3A
:010582003F39
:010583003F38
:010584003F37
:010585003F36
:010586003F35
:010587003F34
:010588003F33
:010589003F32
:01058A003F31
:01058B003F30
:01058C003D31
:01058D003D30
:01058E003D2F
:01058F003D2E
:010590003D2D
:010591003D2C
:010592003D2B
:010593003D2A
:010594003D29
:010595003D28
:010596003D27
:010597003D26
:010598003D25
:010599003D24
:01059A003D23
:01059B003D22
:01059C002935
:01059D00332A
:01059E003428
:01059F003427
:0105A0003426
:0105A1003425
:0105A2003424
:0105A3003423
:0105A4003422
:0105A500361F
:0105A600361E
:0105A700361D
:0105A800361C
:0105A900371A
:0105AA003719
:0105AB003718
:0105AC003717
:0105AD003716
:0105AE003715
:0105AF003813
:0105B0003812
:0105B1003811
:0105B2003810
:0105B300380F
:0105B400380E
:0105B500380D
:0105B600380C
:0105B700380B
:0105B800380A
:0105B9003809
:0105BA003808
:0105BB003807
:0105BC003806
:0105BD003805
:0105BE003804
:0105BF003803
:0105C0003802
:0105C1003801
:0105C2003800
:0105C3003CFB
:0105C4003CFA
:0105C5003CF9
:0105C6003CF8
:0105C7003FF4
:0105C8003FF3
:0105C9003FF2
:0105CA003FF1
:0105CB003FF0
:0105CC003FEF
:0105CD003FEE
:0105CE003FED
:0105CF003FEC
:0105D0003FEB
:0105D1003FEA
:0105D2003FE9
:0105D3003FE8
:0105D4003FE7
:0105D5003FE6
:0105D6003FE5
:0105D7003FE4
:0105D8003FE3
:0105D9003FE2
:0105DA003FE1
:0105DB003FE0
:0105DC003FDF
:0105DD003BE2
:0105DE003BE1
:0105DF003AE1
:0105E0003AE0
:0105E1003ADF
:0105E20038E0
:0105E30038DF
:0105E40038DE
:0105E50038DD
:0105E60038DC
:0105E70038DB
:0105E80038DA
:0105E90038D9
:0105EA0038D8
:0105EB0038D7
:0105EC0038D6
:0105ED0038D5
:0105EE0038D4
:0105EF0038D3
:0105F00038D2
:0105F10038D1
:0105F20038D0
:0105F30038CF
:0105F40038CE
:0105F50038CD
:0105F60037CD
:0105F70037CC
:0105F80037CB
:0105F90037CA
:0105FA0037C9
:0105FB0037C8
:0105FC0037C7
:0105FD0037C6
:0105FE0037C5
:0105FF0037C4
:0106000037C2
:0106010037C1
:0106020037C0
:0106030037BF
:0106040037BE
:0106050037BD
:0106060037BC
:0106070037BB
:0106080037BA
:0106090037B9
:01060A0037B8
:01060B0037B7
:01060C0036B7
:01060D0036B6
:01060E0036B5
:01060F0036B4
:0106100036B3
:0106110036B2
:0106120036B1
:0106130036B0
:0106140035B0
:0106150035AF
:0106160035AE
:0106170035AD
:0106180035AC
:0106190034AC
:01061A0033AC
:01061B0033AB
:01061C0033AA
:01061D0033A9
:01061E0033A8
:01061F0033A7
:0106200033A6
:0106210033A5
:0106220033A4
:0106230033A3
:0106240033A2
:0106250033A1
:0106260033A0
:01062700379B
:01062800379A
:010629003799
:01062A003798
:01062B003797
:01062C003796
:01062D003795
:01062E003794
:01062F003793
:010630003792
:010631003791
:010632003790
:01063300378F
:01063400378E
:01063500378D
:01063600378C
:01063700378B
:01063800378A
:010639003789
:01063A003689
:01063B003688
:01063C003687
:01063D003686
:01063E003586
:01063F003585
:010640003683
:010641003682
:010642003681
:010643003680
:01064400367F
:01064500367E
:01064600367D
:01064700367C
:01064800367B
:01064900367A
:01064A003778
:01064B003777
:01064C003776
:01064D003775
:01064E003774
:01064F003773
:010650003772
:010651003771
:010652003770
:01065300376F
:01065400376E
:01065500376D
:01065600376C
:01065700376B
:01065800376A
:010659003769
:01065A003768
:01065B003767
:01065C003766
:01065D003765
:01065E003764
:01065F003763
:010660003762
:010661003761
:010662003760
:01066300375F
:01066400375E
:01066500375D
:01066600375C
:01066700375B
:01066800375A
:010669003759
:01066A003758
:01066B003757
:01066C003756
:01066D003755
:01066E003754
:01066F003753
:010670003752
:010671003751
:010672003750
:01067300374F
:01067400374E
:01067500374D
:01067600374C
:01067700374B
:01067800374A
:010679003749
:01067A003748
:01067B003747
:01067C003A43
:01067D003A42
:01067E003D3E
:01067F003E3C
:010680003E3B
:010681004038
:010682004037
:010683004036
:010684004035
:010685004034
:010686004033
:010687004032
:010688004031
:010689004030
:01068A00402F
:01068B00402E
:01068C00402D
:01068D00402C
:01068E00402B
:01068F00402A
:010690004029
:010691004028
:010692004027
:010693004026
:010694004025
:010695004024
:010696004023
:010697004022
:010698004021
:010699003F21
:01069A003F20
:01069B003F1F
:01069C003F1E
:01069D003F1D
:01069E003F1C
:01069F003F1B
:0106A0003F1A
:0106A1003F19
:0106A2003F18
:0106A3003F17
:0106A4003F16
:0106A5003F15
:0106A6003F14
:0106A7003F13
:0106A8003D14
:0106A9003D13
:0106AA003D12
:0106AB003D11
:0106AC003D10
:0106AD003D0F
:0106AE003D0E
:0106AF003D0D
:0106B0003D0C
:0106B1003D0B
:0106B2003D0A
:0106B3003D09
:0106B4003D08
:0106B500390B
:0106B6002E15
:0106B700330F
:0106B800330E
:0106B900330D
:0106BA00340B
:0106BB00340A
:0106BC003508
:0106BD003507
:0106BE003506
:0106BF003604
:0106C0003702
:0106C1003701
:0106C2003700
:0106C30037FF
:0106C40037FE
:0106C50037FD
:0106C60037FC
:0106C70037FB
:0106C80037FA
:0106C90037F9
:0106CA0037F8
:0106CB0037F7
:0106CC0037F6
:0106CD0037F5
:0106CE0037F4
:0106CF0037F3
:0106D00037F2
:0106D10037F1
:0106D20037F0
:0106D30037EF
:0106D40037EE
:0106D50037ED
:0106D60037EC
:0106D70037EB
:0106D80037EA
:0106D90036EA
:0106DA0038E7
:0106DB0038E6
:0106DC0038E5
:0106DD0038E4
:0106DE0038E3
:0106DF003CDE
:0106E0003CDD
:0106E1003CDC
:0106E2003CDB
:0106E3003FD7
:0106E4003FD6
:0106E5003FD5
:0106E6003FD4
:0106E7003FD3
:0106E8003FD2
:0106E9003FD1
:0106EA003FD0
:0106EB003FCF
:0106EC003FCE
:0106ED003FCD
:0106EE003FCC
:0106EF003FCB
:0106F0003FCA
:0106F1003FC9
:0106F2003FC8
:0106F3003FC7
:0106F4003FC6
:0106F5003FC5
:0106F6003FC4
:0106F7003FC3
:0106F8003FC2
:0106F9003BC5
:0106FA003BC4
:0106FB003AC4
:0106FC003AC3
:0106FD003AC2
:0106FE0038C3
:0106FF0038C2
:0107000038C0
:0107010038BF
:0107020038BE
:0107030038BD
:0107040038BC
:0107050038BB
:0107060038BA
:0107070038B9
:0107080038B8
:0107090038B7
:01070A0038B6
:01070B0038B5
:01070C0038B4
:01070D0038B3
:01070E0038B2
:01070F0038B1
:0107100038B0
:0107110038AF
:0107120037AF
:0107130037AE
:0107140037AD
:0107150037AC
:0107160037AB
:0107170037AA
:0107180037A9
:0107190037A8
:01071A0037A7
:01071B0037A6
:01071C0037A5
:01071D0037A4
:01071E0037A3
:01071F0037A2
:0107200037A1
:0107210037A0
:01072200379F
:01072300379E
:01072400379D
:01072500379C
:01072600379B
:01072700379A
:01072800369A
:010729003699
:01072A003698
:01072B003697
:01072C003696
:01072D003695
:01072E003694
:01072F003693
:010730003593
:010731003592
:010732003591
:010733003590
:01073400358F
:01073500348F
:01073600338F
:01073700338E
:01073800338D
:01073900338C
:01073A00338B
:01073B00338A
:01073C003389
:01073D003388
:01073E003387
:01073F003386
:010740003385
:010741003384
:010742003383
:01074300377E
:01074400377D
:01074500377C
:01074600377B
:01074700377A
:010748003779
:010749003778
:01074A003777
:01074B003776
:01074C003775
:01074D003774
:01074E003773
:01074F003772
:010750003771
:010751003770
:01075200376F
:01075300376E
:01075400376D
:01075500376C
:01075600366C
:01075700366B
:01075800366A
:010759003669
:01075A003569
:01075B003568
:01075C003666
:01075D003665
:01075E003664
:01075F003663
:010760003662
:010761003661
:010762003660
:01076300365F
:01076400365E
:01076500365D
:01076600375B
:01076700375A
:010768003759
:010769003758
:01076A003757
:01076B003756
:01076C003755
:01076D003754
:01076E003753
:01076F003752
:010770003751
:010771003750
:01077200374F
:01077300374E
:01077400374D
:01077500374C
:01077600374B
:01077700374A
:010778003749
:010779003748
:01077A003747
:01077B003746
:01077C003745
:01077D003744
:01077E003743
:01077F003742
:010780003741
:010781003740
:01078200373F
:01078300373E
:01078400373D
:01078500373C
:01078600373B
:01078700373A
:010788003739
:010789003738
:01078A003737
:01078B003736
:01078C003735
:01078D003734
:01078E003733
:01078F003732
:010790003731
:010791003730
:01079200372F
:01079300372E
:01079400372D
:01079500372C
:01079600372B
:01079700372A
:010798003A26
:010799003A25
:01079A003D21
:01079B003E1F
:01079C003E1E
:01079D003F1C
:01079E003F1B
:01079F003F1A
:0107A0003F19
:0107A1003F18
:0107A2003F17
:0107A3003F16
:0107A4003F15
:0107A5003F14
:0107A6003F13
:0107A7003F12
:0107A8003F11
:0107A9003F10
:0107AA003F0F
:0107AB003F0E
:0107AC003F0D
:0107AD003F0C
:0107AE003F0B
:0107AF003F0A
:0107B0003F09
:0107B1003F08
:0107B2003F07
:0107B3003F06
:0107B4003F05
:0107B5003F04
:0107B6003F03
:0107B7003F02
:0107B8003F01
:0107B9003F00
:0107BA003FFF
:0107BB003FFE
:0107BC003FFD
:0107BD003FFC
:0107BE003FFB
:0107BF003FFA
:0107C0003FF9
:0107C1003FF8
:0107C2003FF7
:0107C3003FF6
:0107C4003DF7
:0107C5003DF6
:0107C6003DF5
:0107C7003DF4
:0107C8003DF3
:0107C9003DF2
:0107CA003DF1
:0107CB003DF0
:0107CC003DEF
:0107CD003DEE
:0107CE003DED
:0107CF003DEC
:0107D0003DEB
:0107D1002FF8
:0107D20032F4
:0107D30033F2
:0107D40033F1
:0107D50033F0
:0107D60034EE
:0107D70034ED
:0107D80037E9
:0107D90037E8
:0107DA0037E7
:0107DB0037E6
:0107DC0037E5
:0107DD0037E4
:0107DE0037E3
:0107DF0037E2
:0107E00037E1
:0107E10037E0
:0107E20037DF
:0107E30037DE
:0107E40037DD
:0107E50037DC
:0107E60037DB
:0107E70037DA
:0107E80037D9
:0107E90037D8
:0107EA0037D7
:0107EB0037D6
:0107EC0037D5
:0107ED0037D4
:0107EE0037D3
:0107EF0037D2
:0107F00037D1
:0107F10037D0
:0107F20037CF
:0107F30037CE
:0107F40037CD
:0107F50036CD
:0107F60038CA
:0107F70038C9
:0107F80038C8
:0107F90038C7
:0107FA0038C6
:0107FB003CC1
:0107FC003CC0
:0107FD003CBF
:0107FE003CBE
:0107FF003FBA
:010800003FB8
:010801003FB7
:010802003FB6
:010803003FB5
:010804003FB4
:010805003FB3
:010806003FB2
:010807003FB1
:010808003FB0
:010809003FAF
:01080A003FAE
:01080B003FAD
:01080C003FAC
:01080D003FAB
:01080E003FAA
:01080F003FA9
:010810003FA8
:010811003FA7
:010812003FA6
:010813003FA5
:010814003FA4
:010815003BA7
:010816003BA6
:010817003AA6
:010818003AA5
:010819003AA4
:01081A0038A5
:01081B0038A4
:01081C0038A3
:01081D0038A2
:01081E0038A1
:01081F0038A0
:01082000389F
:01082100389E
:01082200389D
:01082300389C
:01082400389B
:01082500389A
:010826003899
:010827003898
:010828003897
:010829003896
:01082A003895
:01082B003894
:01082C003893
:01082D003892
:01082E003792
:01082F003791
:010830003790
:01083100378F
:01083200378E
:01083300378D
:01083400378C
:01083500378B
:01083600378A
:010837003789
:010838003788
:010839003787
:01083A003786
:01083B003785
:01083C003784
:01083D003783
:01083E003782
:01083F003781
:010840003780
:01084100377F
:01084200377E
:01084300377D
:01084400367D
:01084500367C
:01084600367B
:01084700367A
:010848003679
:010849003678
:01084A003677
:01084B003676
:01084C003576
:01084D003575
:01084E003574
:01084F003573
:010850003572
:010851003472
:010852003372
:010853003371
:010854003370
:01085500336F
:01085600336E
:01085700336D
:01085800336C
:01085900336B
:01085A00336A
:01085B003369
:01085C003368
:01085D003367
:01085E003366
:01085F003761
:010860003760
:01086100375F
:01086200375E
:01086300375D
:01086400375C
:01086500375B
:01086600375A
:010867003759
:010868003758
:010869003757
:01086A003756
:01086B003755
:01086C003754
:01086D003753
:01086E003752
:01086F003751
:010870003750
:01087100374F
:01087200364F
:01087300364E
:01087400364D
:01087500364C
:01087600354C
:01087700354B
:010878003649
:010879003648
:01087A003647
:01087B003646
:01087C003645
:01087D003644
:01087E003643
:01087F003642
:010880003641
:010881003640
:01088200373E
:01088300373D
:01088400373C
:01088500373B
:01088600373A
:010887003739
:010888003738
:010889003737
:01088A003736
:01088B003735
:01088C003734
:01088D003733
:01088E003732
:01088F003731
:010890003730
:01089100372F
:01089200372E
:01089300372D
:01089400372C
:01089500372B
:01089600372A
:010897003729
:010898003728
:010899003727
:01089A003726
:01089B003725
:01089C003724
:01089D003723
:01089E003722
:01089F003721
:0108A0003720
:0108A100371F
:0108A200371E
:0108A300371D
:0108A400371C
:0108A500371B
:0108A600371A
:0108A7003719
:0108A8003718
:0108A9003717
:0108AA003716
:0108AB003715
:0108AC003714
:0108AD003713
:0108AE003712
:0108AF003711
:0108B0003710
:0108B100370F
:0108B200370E
:0108B300370D
:0108B4003A09
:0108B5003A08
:0108B6003D04
:0108B7003E02
:0108B8003E01
:0108B9003E00
:0108BA003EFF
:0108BB003EFE
:0108BC003FFC
:0108BD003FFB
:0108BE003FFA
:0108BF003FF9
:0108C0003FF8
:0108C1003FF7
:0108C2003FF6
:0108C3003FF5
:0108C4003FF4
:0108C5003FF3
:0108C6003FF2
:0108C7003FF1
:0108C8003FF0
:0108C9003FEF
:0108CA003FEE
:0108CB003FED
:0108CC003FEC
:0108CD003FEB
:0108CE003FEA
:0108CF003FE9
:0108D0003FE8
:0108D1003FE7
:0108D2003FE6
:0108D3003FE5
:0108D4003FE4
:0108D5003FE3
:0108D6003FE2
:0108D7003FE1
:0108D8003FE0
:0108D9003FDF
:0108DA003FDE
:0108DB003FDD
:0108DC003FDC
:0108DD003EDC
:0108DE0024F5
:0108DF001404
:0108E00039DE
:0108E10039DD
:0108E20039DC
:0108E30039DB
:0108E40039DA
:0108E50039D9
:0108E60039D8
:0108E70039D7
:0108E80039D6
:0108E90039D5
:0108EA0039D4
:0108EB0039D3
:0108EC0032D9
:0108ED0032D8
:0108EE0032D7
:0108EF0033D5
:0108F00033D4
:0108F10033D3
:0108F20034D1
:0108F30034D0
:0108F40037CC
:0108F50037CB
:0108F60037CA
:0108F70037C9
:0108F80037C8
:0108F90037C7
:0108FA0037C6
:0108FB0037C5
:0108FC0037C4
:0108FD0037C3
:0108FE0037C2
:0108FF0037C1
:0109000037BF
:0109010037BE
:0109020037BD
:0109030037BC
:0109040037BB
:0109050037BA
:0109060037B9
:0109070037B8
:0109080037B7
:0109090037B6
:01090A0037B5
:01090B0037B4
:01090C0037B3
:01090D0037B2
:01090E0037B1
:01090F0037B0
:0109100037AF
:0109110036AF
:0109120038AC
:0109130038AB
:0109140038AA
:0109150038A9
:0109160038A8
:010917003CA3
:010918003CA2
:010919003CA1
:01091A003CA0
:01091B003F9C
:01091C003F9B
:01091D003F9A
:01091E003F99
:01091F003F98
:010920003F97
:010921003F96
:010922003F95
:010923003F94
:010924003F93
:010925003F92
:010926003F91
:010927003F90
:010928003F8F
:010929003F8E
:01092A003F8D
:01092B003F8C
:01092C003F8B
:01092D003F8A
:01092E003F89
:01092F003F88
:010930003F87
:010931003B8A
:010932003B89
:010933003A89
:010934003A88
:010935003A87
:010936003888
:010937003887
:010938003886
:010939003885
:01093A003884
:01093B003883
:01093C003882
:01093D003881
:01093E003880
:01093F00387F
:01094000387E
:01094100387D
:01094200387C
:01094300387B
:01094400387A
:010945003879
:010946003878
:010947003877
:010948003876
:010949003875
:01094A003775
:01094B003774
:01094C003773
:01094D003772
:01094E003771
:01094F003770
:01095000376F
:01095100376E
:01095200376D
:01095300376C
:01095400376B
:01095500376A
:010956003769
:010957003768
:010958003767
:010959003766
:01095A003765
:01095B003764
:01095C003763
:01095D003762
:01095E003761
:01095F003760
:010960003660
:01096100365F
:01096200365E
:01096300365D
:01096400365C
:01096500365B
:01096600365A
:010967003659
:010968003559
:010969003558
:01096A003557
:01096B003556
:01096C003555
:01096D003455
:01096E003355
:01096F003354
:010970003353
:010971003352
:010972003351
:010973003350
:01097400334F
:01097500334E
:01097600334D
:01097700334C
:01097800334B
:01097900334A
:01097A003349
:01097B003348
:01097C003347
:01097D003346
:01097E003345
:01097F003641
:010980003640
:01098100363F
:01098200363E
:01098300363D
:01098400363C
:01098500363B
:01098600363A
:010987003639
:010988003638
:010989003637
:01098A003636
:01098B003635
:01098C003634
:01098D003633
:01098E003632
:01098F003631
:010990003630
:01099100362F
:01099200352F
:01099300352E
:01099400362C
:01099500362B
:01099600362A
:010997003629
:010998003628
:010999003627
:01099A003626
:01099B003625
:01099C003624
:01099D003623
:01099E003721
:01099F003720
:0109A000371F
:0109A100371E
:0109A200371D
:0109A300371C
:0109A400371B
:0109A500371A
:0109A6003719
:0109A7003718
:0109A8003717
:0109A9003716
:0109AA003715
:0109AB003714
:0109AC003713
:0109AD003712
:0109AE003711
:0109AF003710
:0109B000370F
:0109B100370E
:0109B200370D
:0109B300370C
:0109B400370B
:0109B500370A
:0109B6003709
:0109B7003708
:0109B8003707
:0109B9003706
:0109BA003705
:0109BB003704
:0109BC003703
:0109BD003702
:0109BE003701
:0109BF003700
:0109C00037FF
:0109C10037FE
:0109C20037FD
:0109C30037FC
:0109C40037FB
:0109C50037FA
:0109C60037F9
:0109C70037F8
:0109C80037F7
:0109C90037F6
:0109CA0037F5
:0109CB0037F4
:0109CC0037F3
:0109CD0037F2
:0109CE0037F1
:0109CF0037F0
:0109D0003AEC
:0109D1003AEB
:0109D2003DE7
:0109D3003EE5
:0109D40040E2
:0109D50041E0
:0109D60041DF
:0109D70041DE
:0109D80041DD
:0109D90041DC
:0109DA0041DB
:0109DB0041DA
:0109DC0041D9
:0109DD0041D8
:0109DE0041D7
:0109DF0041D6
:0109E00041D5
:0109E10041D4
:0109E20041D3
:0109E30041D2
:0109E40041D1
:0109E50041D0
:0109E60041CF
:0109E70041CE
:0109E80041CD
:0109E90041CC
:0109EA003FCD
:0109EB003FCC
:0109EC003FCB
:0109ED003FCA
:0109EE003FC9
:0109EF003FC8
:0109F0003FC7
:0109F1003FC6
:0109F2003FC5
:0109F3003FC4
:0109F4003FC3
:0109F50029D8
:0109F60018E8
:0109F70017E8
:0109F8001AE4
:0109F90026D7
:0109FA0028D4
:0109FB0028D3
:0109FC0039C1
:0109FD0039C0
:0109FE0039BF
:0109FF0039BE
:010A000039BC
:010A010039BB
:010A020039BA
:010A030039B9
:010A040039B8
:010A050039B7
:010A060034BB
:010A070034BA
:010A080032BB
:010A090032BA
:010A0A0032B9
:010A0B0033B7
:010A0C0033B6
:010A0D0033B5
:010A0E0034B3
:010A0F0034B2
:010A100037AE
:010A110037AD
:010A120037AC
:010A130037AB
:010A140037AA
:010A150037A9
:010A160037A8
:010A170037A7
:010A180037A6
:010A190037A5
:010A1A0037A4
:010A1B0037A3
:010A1C0037A2
:010A1D0037A1
:010A1E0037A0
:010A1F00379F
:010A2000379E
:010A2100379D
:010A2200379C
:010A2300379B
:010A2400379A
:010A25003799
:010A26003798
:010A27003797
:010A28003796
:010A29003795
:010A2A003794
:010A2B003793
:010A2C003792
:010A2D003692
:010A2E00388F
:010A2F00388E
:010A3000388D
:010A3100388C
:010A3200388B
:010A33003C86
:010A34003C85
:010A35003C84
:010A36003C83
:010A37003F7F
:010A38003F7E
:010A39003F7D
:010A3A003F7C
:010A3B003F7B
:010A3C003F7A
:010A3D003F79
:010A3E003F78
:010A3F003F77
:010A40003F76
:010A41003F75
:010A42003F74
:010A43003F73
:010A44003F72
:010A45003F71
:010A46003F70
:010A47003F6F
:010A48003F6E
:010A49003F6D
:010A4A003F6C
:010A4B003F6B
:010A4C003F6A
:010A4D003B6D
:010A4E003B6C
:010A4F003A6C
:010A50003A6B
:010A51003A6A
:010A5200386B
:010A5300386A
:010A54003869
:010A55003868
:010A56003867
:010A57003866
:010A58003865
:010A59003864
:010A5A003863
:010A5B003862
:010A5C003861
:010A5D003860
:010A5E00385F
:010A5F00385E
:010A6000385D
:010A6100385C
:010A6200385B
:010A6300385A
:010A64003859
:010A65003858
:010A66003758
:010A67003757
:010A68003756
:010A69003755
:010A6A003754
:010A6B003753
:010A6C003752
:010A6D003751
:010A6E003750
:010A6F00374F
:010A7000374E
:010A7100374D
:010A7200344F
:010A7300354D
:010A7400354C
:010A7500354B
:010A7600354A
:010A77003549
:010A78003548
:010A79003547
:010A7A003546
:010A7B003545
:010A7C003544
:010A7D003543
:010A7E003542
:010A7F003541
:010A80003540
:010A8100353F
:010A8200353E
:010A8300353D
:010A8400353C
:010A8500353B
:010A8600353A
:010A87003539
:010A88003538
:010A89003438
:010A8A003338
:010A8B003337
:010A8C003336
:010A8D003335
:010A8E003334
:010A8F003333
:010A90003332
:010A91003331
:010A92003330
:010A9300332F
:010A9400332E
:010A9500332D
:010A9600332C
:010A9700332B
:010A9800332A
:010A99003329
:010A9A003328
:010A9B003624
:010A9C003623
:010A9D003622
:010A9E003621
:010A9F003620
:010AA000361F
:010AA100361E
:010AA200361D
:010AA300361C
:010AA400361B
:010AA500361A
:010AA6003619
:010AA7003618
:010AA8003617
:010AA9003616
:010AAA003615
:010AAB003614
:010AAC003613
:010AAD003612
:010AAE003512
:010AAF003511
:010AB000360F
:010AB100360E
:010AB200360D
:010AB300360C
:010AB400360B
:010AB500360A
:010AB6003609
:010AB7003608
:010AB8003607
:010AB9003606
:010ABA003704
:010ABB003703
:010ABC003702
:010ABD003701
:010ABE003700
:010ABF0037FF
:010AC00037FE
:010AC10037FD
:010AC20037FC
:010AC30037FB
:010AC40037FA
:010AC50037F9
:010AC60037F8
:010AC70037F7
:010AC80037F6
:010AC90037F5
:010ACA0037F4
:010ACB0037F3
:010ACC0037F2
:010ACD0037F1
:010ACE0037F0
:010ACF0037EF
:010AD00037EE
:010AD10037ED
:010AD20037EC
:010AD30037EB
:010AD40037EA
:010AD50037E9
:010AD60037E8
:010AD70037E7
:010AD80037E6
:010AD90037E5
:010ADA0037E4
:010ADB0037E3
:010ADC0037E2
:010ADD0037E1
:010ADE0037E0
:010ADF0037DF
:010AE00037DE
:010AE10037DD
:010AE20037DC
:010AE30037DB
:010AE40037DA
:010AE50037D9
:010AE60037D8
:010AE70037D7
:010AE80037D6
:010AE90037D5
:010AEA0037D4
:010AEB0037D3
:010AEC003ACF
:010AED003ACE
:010AEE003DCA
:010AEF003EC8
:010AF00040C5
:010AF10041C3
:010AF20044BF
:010AF30044BE
:010AF40044BD
:010AF50044BC
:010AF60044BB
:010AF70044BA
:010AF80044B9
:010AF90044B8
:010AFA0044B7
:010AFB0044B6
:010AFC0044B5
:010AFD0044B4
:010AFE0044B3
:010AFF0044B2
:010B000044B0
:010B010044AF
:010B020044AE
:010B030044AD
:010B040044AC
:010B050043AC
:010B06003CB2
:010B07003CB1
:010B08003CB0
:010B09003CAF
:010B0A003CAE
:010B0B003CAD
:010B0C0037B1
:010B0D0029BE
:010B0E0021C5
:010B0F001EC7
:010B100022C2
:010B110026BD
:010B12002CB6
:010B13002CB5
:010B14002CB4
:010B15002CB3
:010B16002CB2
:010B17002CB1
:010B180039A3
:010B190039A2
:010B1A0039A1
:010B1B0039A0
:010B1C00399F
:010B1D00399E
:010B1E00399D
:010B1F00399C
:010B2000399B
:010B210027AC
:010B220031A1
:010B230031A0
:010B2400319F
:010B2500329D
:010B2600329C
:010B2700339A
:010B28003399
:010B29003398
:010B2A003496
:010B2B003495
:010B2C003791
:010B2D003790
:010B2E00378F
:010B2F00378E
:010B3000378D
:010B3100378C
:010B3200378B
:010B3300378A
:010B34003789
:010B35003788
:010B36003787
:010B37003786
:010B38003785
:010B39003784
:010B3A003783
:010B3B003782
:010B3C003781
:010B3D003780
:010B3E00377F
:010B3F00377E
:010B4000377D
:010B4100377C
:010B4200377B
:010B4300367B
:010B4400367A
:010B45003679
:010B46003678
:010B47003677
:010B48003676
:010B49003675
:010B4A003872
:010B4B003871
:010B4C003870
:010B4D00386F
:010B4E00386E
:010B4F003C69
:010B50003C68
:010B51003C67
:010B52003C66
:010B53003F62
:010B54003F61
:010B55003F60
:010B56003F5F
:010B57003F5E
:010B58003F5D
:010B59003F5C
:010B5A003F5B
:010B5B003F5A
:010B5C003F59
:010B5D003F58
:010B5E003F57
:010B5F003F56
:010B60003F55
:010B61003F54
:010B62003F53
:010B63003F52
:010B64003F51
:010B65003F50
:010B66003F4F
:010B67003F4E
:010B68003F4D
:010B69003B50
:010B6A003B4F
:010B6B003A4F
:010B6C003A4E
:010B6D003A4D
:010B6E00384E
:010B6F00384D
:010B7000384C
:010B7100384B
:010B7200384A
:010B73003849
:010B74003848
:010B75003847
:010B76003846
:010B77003845
:010B78003844
:010B79003843
:010B7A003842
:010B7B003841
:010B7C003840
:010B7D00383F
:010B7E00383E
:010B7F00383D
:010B8000383C
:010B8100383B
:010B8200373B
:010B8300373A
:010B84003739
:010B85003738
:010B86003737
:010B87003736
:010B88003735
:010B89003734
:010B8A003733
:010B8B003732
:010B8C003731
:010B8D003730
:010B8E003432
:010B8F003530
:010B9000352F
:010B9100352E
:010B9200352D
:010B9300352C
:010B9400352B
:010B9500352A
:010B96003529
:010B97003528
:010B98003527
:010B99003526
:010B9A003525
:010B9B003524
:010B9C003523
:010B9D003522
:010B9E003521
:010B9F003520
:010BA000351F
:010BA100351E
:010BA200351D
:010BA300351C
:010BA400351B
:010BA500341B
:010BA600331B
:010BA700331A
:010BA8003319
:010BA9003318
:010BAA003317
:010BAB003316
:010BAC003117
:010BAD003314
:010BAE003313
:010BAF003312
:010BB0003311
:010BB1003310
:010BB200330F
:010BB300330E
:010BB400330D
:010BB500330C
:010BB600330B
:010BB7003607
:010BB8003606
:010BB9003605
:010BBA003604
:010BBB003603
:010BBC003602
:010BBD003601
:010BBE003600
:010BBF0036FF
:010BC00036FE
:010BC10036FD
:010BC20036FC
:010BC30036FB
:010BC40036FA
:010BC50036F9
:010BC60036F8
:010BC70036F7
:010BC80036F6
:010BC90036F5
:010BCA0035F5
:010BCB0035F4
:010BCC0036F2
:010BCD0036F1
:010BCE0036F0
:010BCF0036EF
:010BD00036EE
:010BD10036ED
:010BD20036EC
:010BD30036EB
:010BD40036EA
:010BD50036E9
:010BD60037E7
:010BD70037E6
:010BD80037E5
:010BD90037E4
:010BDA0037E3
:010BDB0037E2
:010BDC0037E1
:010BDD0037E0
:010BDE0037DF
:010BDF0037DE
:010BE00037DD
:010BE10037DC
:010BE20037DB
:010BE30037DA
:010BE40037D9
:010BE50037D8
:010BE60037D7
:010BE70037D6
:010BE80037D5
:010BE90037D4
:010BEA0037D3
:010BEB0037D2
:010BEC0037D1
:010BED0037D0
:010BEE0037CF
:010BEF0037CE
:010BF00037CD
:010BF10037CC
:010BF20037CB
:010BF30037CA
:010BF40037C9
:010BF50037C8
:010BF60037C7
:010BF70037C6
:010BF80037C5
:010BF90037C4
:010BFA0037C3
:010BFB0037C2
:010BFC0037C1
:010BFD0037C0
:010BFE0037BF
:010BFF0037BE
:010C000037BC
:010C010037BB
:010C020037BA
:010C030037B9
:010C040037B8
:010C050037B7
:010C060037B6
:010C070037B5
:010C08003AB1
:010C09003AB0
:010C0A003DAC
:010C0B003EAA
:010C0C0040A7
:010C0D0041A5
:010C0E0044A1
:010C0F0044A0
:010C1000449F
:010C1100449E
:010C1200449D
:010C1300449C
:010C1400449B
:010C1500449A
:010C16004499
:010C17004498
:010C18004497
:010C19004496
:010C1A004495
:010C1B004494
:010C1C004493
:010C1D004492
:010C1E004491
:010C1F004490
:010C2000448F
:010C2100438F
:010C22004190
:010C23004090
:010C24003F90
:010C25002AA4
:010C26001EAF
:010C27001EAE
:010C280021AA
:010C290029A1
:010C2A003099
:010C2B003098
:010C2C003097
:010C2D003096
:010C2E003095
:010C2F003094
:010C30003093
:010C31003092
:010C32003091
:010C33003090
:010C34002798
:010C35002797
:010C36002796
:010C37002795
:010C38002794
:010C39002991
:010C3A002F8A
:010C3B002F89
:010C3C002F88
:010C3D002F87
:010C3E003184
:010C3F003183
:010C40003182
:010C41003280
:010C4200327F
:010C4300337D
:010C4400337C
:010C4500337B
:010C46003479
:010C47003478
:010C48003774
:010C49003773
:010C4A003772
:010C4B003771
:010C4C003770
:010C4D00376F
:010C4E00376E
:010C4F00376D
:010C5000376C
:010C5100376B
:010C5200376A
:010C53003769
:010C54003768
:010C55003767
:010C56003766
:010C57003765
:010C58003764
:010C59003763
:010C5A003762
:010C5B003761
:010C5C003760
:010C5D00375F
:010C5E00375E
:010C5F00365E
:010C6000365D
:010C6100365C
:010C6200365B
:010C6300365A
:010C64003659
:010C65003658
:010C66003855
:010C67003854
:010C68003853
:010C69003852
:010C6A003851
:010C6B003C4C
:010C6C003C4B
:010C6D003C4A
:010C6E003C49
:010C6F003F45
:010C70003F44
:010C71003F43
:010C72003F42
:010C73003F41
:010C74003F40
:010C75003F3F
:010C76003F3E
:010C77003F3D
:010C78003F3C
:010C79003F3B
:010C7A003F3A
:010C7B003F39
:010C7C003F38
:010C7D003F37
:010C7E003F36
:010C7F003F35
:010C80003F34
:010C81003F33
:010C82003F32
:010C83003F31
:010C84003F30
:010C85003B33
:010C86003B32
:010C87003A32
:010C88003A31
:010C89003A30
:010C8A003831
:010C8B003830
:010C8C00382F
:010C8D00382E
:010C8E00382D
:010C8F00382C
:010C9000382B
:010C9100382A
:010C92003829
:010C93003828
:010C94003827
:010C95003826
:010C96003825
:010C97003824
:010C98003823
:010C99003822
:010C9A003821
:010C9B003820
:010C9C00381F
:010C9D00381E
:010C9E00371E
:010C9F00371D
:010CA000371C
:010CA100371B
:010CA200371A
:010CA3003719
:010CA4003718
:010CA5003717
:010CA6003716
:010CA7003715
:010CA8003714
:010CA9003713
:010CAA003415
:010CAB003414
:010CAC003413
:010CAD003412
:010CAE003411
:010CAF003410
:010CB000340F
:010CB100340E
:010CB2003110
:010CB300310F
:010CB400310E
:010CB500320C
:010CB600320B
:010CB700320A
:010CB8003209
:010CB9003208
:010CBA003207
:010CBB003206
:010CBC003205
:010CBD003204
:010CBE003203
:010CBF003202
:010CC0003201
:010CC1003200
:010CC20032FF
:010CC30032FE
:010CC40032FD
:010CC50032FC
:010CC60032FB
:010CC70032FA
:010CC80031FA
:010CC90031F9
:010CCA0031F8
:010CCB0031F7
:010CCC0032F5
:010CCD0033F3
:010CCE0033F2
:010CCF0033F1
:010CD00033F0
:010CD10033EF
:010CD20033EE
:010CD30036EA
:010CD40036E9
:010CD50036E8
:010CD60036E7
:010CD70036E6
:010CD80036E5
:010CD90036E4
:010CDA0036E3
:010CDB0036E2
:010CDC0036E1
:010CDD0036E0
:010CDE0036DF
:010CDF0036DE
:010CE00036DD
:010CE10036DC
:010CE20036DB
:010CE30036DA
:010CE40036D9
:010CE50036D8
:010CE60035D8
:010CE70035D7
:010CE80036D5
:010CE90036D4
:010CEA0036D3
:010CEB0036D2
:010CEC0036D1
:010CED0036D0
:010CEE0036CF
:010CEF0036CE
:010CF00036CD
:010CF10036CC
:010CF20037CA
:010CF30037C9
:010CF40037C8
:010CF50037C7
:010CF60037C6
:010CF70037C5
:010CF80037C4
:010CF90037C3
:010CFA0037C2
:010CFB0037C1
:010CFC0037C0
:010CFD0037BF
:010CFE0037BE
:010CFF0037BD
:010D000037BB
:010D010037BA
:010D020037B9
:010D030037B8
:010D040037B7
:010D050037B6
:010D060037B5
:010D070037B4
:010D080037B3
:010D090037B2
:010D0A0037B1
:010D0B0037B0
:010D0C0037AF
:010D0D0037AE
:010D0E0037AD
:010D0F0037AC
:010D100037AB
:010D110037AA
:010D120037A9
:010D130037A8
:010D140037A7
:010D150037A6
:010D160037A5
:010D170037A4
:010D180037A3
:010D190037A2
:010D1A0037A1
:010D1B0037A0
:010D1C00379F
:010D1D00379E
:010D1E00379D
:010D1F00379C
:010D2000379B
:010D2100379A
:010D22003799
:010D23003798
:010D24003A94
:010D25003A93
:010D26003D8F
:010D27003E8D
:010D2800408A
:010D29004188
:010D2A004484
:010D2B004483
:010D2C004482
:010D2D004481
:010D2E004480
:010D2F00447F
:010D3000447E
:010D3100447D
:010D3200447C
:010D3300447B
:010D3400447A
:010D35004479
:010D36004478
:010D37004477
:010D38004476
:010D39004475
:010D3A004474
:010D3B004473
:010D3C004472
:010D3D004372
:010D3E004173
:010D3F004172
:010D40003F73
:010D41003A77
:010D42003A76
:010D43003A75
:010D44003975
:010D45003875
:010D46003874
:010D47003873
:010D48003872
:010D49003871
:010D4A003870
:010D4B00386F
:010D4C00386E
:010D4D00386D
:010D4E00386C
:010D4F00386B
:010D5000277B
:010D5100277A
:010D52002779
:010D53002778
:010D54002777
:010D55002974
:010D56002F6D
:010D57002F6C
:010D58002F6B
:010D59002F6A
:010D5A003167
:010D5B003166
:010D5C003165
:010D5D003263
:010D5E003262
:010D5F003360
:010D6000335F
:010D6100335E
:010D6200345C
:010D6300345B
:010D64003757
:010D65003756
:010D66003755
:010D67003754
:010D68003753
:010D69003752
:010D6A003751
:010D6B003750
:010D6C00374F
:010D6D00374E
:010D6E00374D
:010D6F00374C
:010D7000374B
:010D7100374A
:010D72003749
:010D73003748
:010D74003747
:010D75003746
:010D76003745
:010D77003744
:010D78003743
:010D79003742
:010D7A003741
:010D7B003641
:010D7C003640
:010D7D00363F
:010D7E00363E
:010D7F00363D
:010D8000363C
:010D8100363B
:010D82003838
:010D83003837
:010D84003836
:010D85003835
:010D86003834
:010D87003C2F
:010D88003C2E
:010D89003C2D
:010D8A003C2C
:010D8B003F28
:010D8C003F27
:010D8D003F26
:010D8E003F25
:010D8F003F24
:010D90003F23
:010D91003F22
:010D92003F21
:010D93003F20
:010D94003F1F
:010D95003F1E
:010D96003F1D
:010D97003F1C
:010D98003F1B
:010D99003F1A
:010D9A003F19
:010D9B003F18
:010D9C003F17
:010D9D003F16
:010D9E003F15
:010D9F003F14
:010DA0003F13
:010DA1003B16
:010DA2003B15
:010DA3003A15
:010DA4003A14
:010DA5003A13
:010DA6003814
:010DA7003813
:010DA8003812
:010DA9003811
:010DAA003810
:010DAB00380F
:010DAC00380E
:010DAD00380D
:010DAE00380C
:010DAF00380B
:010DB000330F
:010DB100330E
:010DB2003010
:010DB300300F
:010DB400300E
:010DB500300D
:010DB600300C
:010DB700300B
:010DB800300A
:010DB9003009
:010DBA002F09
:010DBB002F08
:010DBC003006
:010DBD003005
:010DBE003004
:010DBF003003
:010DC0003002
:010DC1003001
:010DC2003000
:010DC30030FF
:010DC40030FE
:010DC50030FD
:010DC60030FC
:010DC70030FB
:010DC80030FA
:010DC90030F9
:010DCA0030F8
:010DCB0030F7
:010DCC0030F6
:010DCD0030F5
:010DCE0030F4
:010DCF0030F3
:010DD00030F2
:010DD10030F1
:010DD20030F0
:010DD30030EF
:010DD40030EE
:010DD50030ED
:010DD60030EC
:010DD70030EB
:010DD80030EA
:010DD90030E9
:010DDA0030E8
:010DDB0030E7
:010DDC0030E6
:010DDD0030E5
:010DDE0030E4
:010DDF0030E3
:010DE00030E2
:010DE10030E1
:010DE20031DF
:010DE30031DE
:010DE40031DD
:010DE50031DC
:010DE60031DB
:010DE70031DA
:010DE80032D8
:010DE90032D7
:010DEA0032D6
:010DEB0032D5
:010DEC0033D3
:010DED0033D2
:010DEE0033D1
:010DEF0036CD
:010DF00036CC
:010DF10036CB
:010DF20036CA
:010DF30036C9
:010DF40036C8
:010DF50036C7
:010DF60036C6
:010DF70036C5
:010DF80036C4
:010DF90036C3
:010DFA0036C2
:010DFB0036C1
:010DFC0036C0
:010DFD0036BF
:010DFE0036BE
:010DFF0036BD
:010E000036BB
:010E010036BA
:010E020035BA
:010E030035B9
:010E040036B7
:010E050036B6
:010E060036B5
:010E070036B4
:010E080036B3
:010E090036B2
:010E0A0036B1
:010E0B0036B0
:010E0C0036AF
:010E0D0036AE
:010E0E0037AC
:010E0F0037AB
:010E100037AA
:010E110037A9
:010E120037A8
:010E130037A7
:010E140037A6
:010E150037A5
:010E160037A4
:010E170037A3
:010E180037A2
:010E190037A1
:010E1A0037A0
:010E1B00379F
:010E1C00379E
:010E1D00379D
:010E1E00379C
:010E1F00379B
:010E2000379A
:010E21003799
:010E22003798
:010E23003797
:010E24003796
:010E25003795
:010E26003794
:010E27003793
:010E28003792
:010E29003791
:010E2A003790
:010E2B00378F
:010E2C00378E
:010E2D00378D
:010E2E00378C
:010E2F00378B
:010E3000378A
:010E31003789
:010E32003788
:010E33003787
:010E34003786
:010E35003785
:010E36003784
:010E37003783
:010E38003782
:010E39003781
:010E3A003780
:010E3B00377F
:010E3C00377E
:010E3D00377D
:010E3E00377C
:010E3F00377B
:010E40003A77
:010E41003A76
:010E42003D72
:010E43003E70
:010E4400406D
:010E4500416B
:010E46004467
:010E47004466
:010E48004465
:010E49004464
:010E4A004463
:010E4B004462
:010E4C004461
:010E4D004460
:010E4E00445F
:010E4F00445E
:010E5000445D
:010E5100445C
:010E5200445B
:010E5300445A
:010E54004459
:010E55004458
:010E56004457
:010E57004456
:010E58004455
:010E59004355
:010E5A004156
:010E5B004155
:010E5C003F56
:010E5D003A5A
:010E5E003A59
:010E5F003A58
:010E60003958
:010E61003957
:010E62003956
:010E63003955
:010E64003855
:010E65003854
:010E66003853
:010E67003852
:010E68003851
:010E69003850
:010E6A00384F
:010E6B00384E
:010E6C00265F
:010E6D002262
:010E6E00146F
:010E6F001D65
:010E7000235E
:010E71002957
:010E72002F50
:010E73002F4F
:010E74002F4E
:010E75002F4D
:010E7600314A
:010E77003149
:010E78003148
:010E79003246
:010E7A003245
:010E7B003343
:010E7C003342
:010E7D003341
:010E7E003340
:010E7F00333F
:010E8000373A
:010E81003739
:010E82003738
:010E83003737
:010E84003736
:010E85003735
:010E86003734
:010E87003733
:010E88003732
:010E89003731
:010E8A003730
:010E8B00372F
:010E8C00372E
:010E8D00372D
:010E8E00372C
:010E8F00372B
:010E9000372A
:010E91003729
:010E92003728
:010E93003727
:010E94003726
:010E95003725
:010E96003724
:010E97003624
:010E98003623
:010E99003622
:010E9A003621
:010E9B003620
:010E9C00361F
:010E9D00361E
:010E9E00381B
:010E9F00381A
:010EA0003819
:010EA1003818
:010EA2003817
:010EA3003B13
:010EA4003B12
:010EA5003C10
:010EA6003C0F
:010EA7003F0B
:010EA8003F0A
:010EA9003F09
:010EAA003F08
:010EAB003F07
:010EAC003F06
:010EAD003F05
:010EAE003F04
:010EAF003F03
:010EB0003F02
:010EB1003F01
:010EB2003F00
:010EB3003FFF
:010EB4003FFE
:010EB5003FFD
:010EB6003FFC
:010EB7003FFB
:010EB8003FFA
:010EB9003FF9
:010EBA003FF8
:010EBB003FF7
:010EBC003FF6
:010EBD003BF9
:010EBE003BF8
:010EBF003AF8
:010EC0003AF7
:010EC10039F7
:010EC20035FA
:010EC30035F9
:010EC40035F8
:010EC50034F8
:010EC60033F8
:010EC70033F7
:010EC80033F6
:010EC90033F5
:010ECA0033F4
:010ECB0033F3
:010ECC0033F2
:010ECD0033F1
:010ECE0030F3
:010ECF0030F2
:010ED00030F1
:010ED10030F0
:010ED20030EF
:010ED30030EE
:010ED40030ED
:010ED50030EC
:010ED6002FEC
:010ED7002FEB
:010ED80030E9
:010ED90030E8
:010EDA0030E7
:010EDB0030E6
:010EDC0030E5
:010EDD0030E4
:010EDE0030E3
:010EDF0030E2
:010EE00030E1
:010EE10030E0
:010EE20030DF
:010EE30030DE
:010EE40030DD
:010EE50030DC
:010EE60030DB
:010EE70030DA
:010EE80030D9
:010EE90030D8
:010EEA0030D7
:010EEB0030D6
:010EEC0030D5
:010EED0030D4
:010EEE0030D3
:010EEF0030D2
:010EF00030D1
:010EF10030D0
:010EF20030CF
:010EF30030CE
:010EF40030CD
:010EF50030CC
:010EF60030CB
:010EF70030CA
:010EF80030C9
:010EF90030C8
:010EFA0030C7
:010EFB0030C6
:010EFC0030C5
:010EFD0030C4
:010EFE0031C2
:010EFF0031C1
:010F000031BF
:010F010031BE
:010F020031BD
:010F030031BC
:010F040031BB
:010F050031BA
:010F060031B9
:010F070031B8
:010F080031B7
:010F090031B6
:010F0A0031B5
:010F0B0036AF
:010F0C0036AE
:010F0D0036AD
:010F0E0036AC
:010F0F0036AB
:010F100036AA
:010F110036A9
:010F120036A8
:010F130036A7
:010F140036A6
:010F150036A5
:010F160036A4
:010F170036A3
:010F180036A2
:010F190036A1
:010F1A0036A0
:010F1B00369F
:010F1C00369E
:010F1D00369D
:010F1E00359D
:010F1F00359C
:010F2000369A
:010F21003699
:010F22003698
:010F23003697
:010F24003696
:010F25003695
:010F26003694
:010F27003693
:010F28003692
:010F29003691
:010F2A00378F
:010F2B00378E
:010F2C00378D
:010F2D00378C
:010F2E00378B
:010F2F00378A
:010F30003789
:010F31003788
:010F32003787
:010F33003786
:010F34003785
:010F35003784
:010F36003783
:010F37003782
:010F38003781
:010F39003780
:010F3A00377F
:010F3B00377E
:010F3C00377D
:010F3D00377C
:010F3E00377B
:010F3F00377A
:010F40003779
:010F41003778
:010F42003777
:010F43003776
:010F44003775
:010F45003774
:010F46003773
:010F47003772
:010F48003771
:010F49003770
:010F4A00376F
:010F4B00376E
:010F4C00376D
:010F4D00376C
:010F4E00376B
:010F4F00376A
:010F50003769
:010F51003768
:010F52003767
:010F53003766
:010F54003765
:010F55003764
:010F56003763
:010F57003762
:010F58003761
:010F59003760
:010F5A00375F
:010F5B00375E
:010F5C003A5A
:010F5D003A59
:010F5E003D55
:010F5F003E53
:010F60004050
:010F6100414E
:010F6200444A
:010F63004449
:010F64004448
:010F65004447
:010F66004446
:010F67004445
:010F68004444
:010F69004443
:010F6A004442
:010F6B004441
:010F6C004440
:010F6D00443F
:010F6E00443E
:010F6F00443D
:010F7000443C
:010F7100443B
:010F7200443A
:010F73004439
:010F74004438
:010F75004338
:010F76004139
:010F77004138
:010F78003F39
:010F79003A3D
:010F7A003A3C
:010F7B003A3B
:010F7C00393B
:010F7D00393A
:010F7E003939
:010F7F003938
:010F80003937
:010F81003936
:010F82003935
:010F83003934
:010F84003834
:010F85003833
:010F86003832
:010F87003831
:010F88003137
:010F89003136
:010F8A003135
:010F8B003134
:010F8C003133
:010F8D003132
:010F8E003131
:010F8F003130
:010F9000312F
:010F9100312E
:010F9200312D
:010F9300312C
:010F9400312B
:010F95003229
:010F96003228
:010F97003326
:010F98003325
:010F99003324
:010F9A003323
:010F9B003322
:010F9C00371D
:010F9D00371C
:010F9E00371B
:010F9F00371A
:010FA0003719
:010FA1003718
:010FA2003717
:010FA3003716
:010FA4003715
:010FA5003714
:010FA6003713
:010FA7003712
:010FA8003711
:010FA9003710
:010FAA00370F
:010FAB00370E
:010FAC00370D
:010FAD00370C
:010FAE00370B
:010FAF00370A
:010FB0003709
:010FB1003708
:010FB2003707
:010FB3003607
:010FB4003606
:010FB5003605
:010FB6003604
:010FB7003603
:010FB8003602
:010FB9003601
:010FBA003600
:010FBB0036FF
:010FBC0036FE
:010FBD0036FD
:010FBE0036FC
:010FBF0036FB
:010FC00036FA
:010FC10035FA
:010FC20034FA
:010FC30036F7
:010FC40036F6
:010FC50036F5
:010FC6003AF0
:010FC7003BEE
:010FC8003BED
:010FC9003BEC
:010FCA003BEB
:010FCB003BEA
:010FCC003BE9
:010FCD003BE8
:010FCE003BE7
:010FCF003BE6
:010FD0003BE5
:010FD1003BE4
:010FD2003BE3
:010FD3003BE2
:010FD4003BE1
:010FD5003BE0
:010FD6003BDF
:010FD7003BDE
:010FD8003BDD
:010FD9003BDC
:010FDA003BDB
:010FDB003ADB
:010FDC0039DB
:010FDD0035DE
:010FDE0033DF
:010FDF0033DE
:010FE00033DD
:010FE10033DC
:010FE20033DB
:010FE30033DA
:010FE40033D9
:010FE50033D8
:010FE60031D9
:010FE70031D8
:010FE80031D7
:010FE90031D6
:010FEA0030D6
:010FEB0030D5
:010FEC0030D4
:010FED0030D3
:010FEE0030D2
:010FEF0030D1
:010FF00030D0
:010FF10030CF
:010FF2002FCF
:010FF3002FCE
:010FF40030CC
:010FF50030CB
:010FF60030CA
:010FF70030C9
:010FF80030C8
:010FF90030C7
:010FFA0030C6
:010FFB0030C5
:010FFC0030C4
:010FFD0030C3
:010FFE0030C2
:010FFF0030C1
:0110000030BF
:0110010030BE
:0110020030BD
:0110030030BC
:0110040030BB
:0110050030BA
:0110060030B9
:011007002FB9
:011008002FB8
:011009002FB7
:01100A002FB6
:01100B002DB7
:01100C002DB6
:01100D002DB5
:01100E002DB4
:01100F002DB3
:011010002DB2
:011011002DB1
:011012002DB0
:011013002DAF
:011014002DAE
:011015002DAD
:011016002DAC
:011017002DAB
:011018002DAA
:011019002DA9
:01101A002DA8
:01101B002DA7
:01101C002DA6
:01101D002DA5
:01101E002DA4
:01101F002DA3
:011020002DA2
:011021002DA1
:011022002DA0
:011023002D9F
:011024002D9E
:011025002D9D
:011026002D9C
:011027002D9B
:011028002D9A
:011029002C9A
:01102A002C99
:01102B002E96
:01102C002E95
:01102D002E94
:01102E002E93
:01102F002E92
:011030002E91
:011031002E90
:011032002E8F
:011033002E8E
:011034002E8D
:011035002E8C
:011036002E8B
:011037002E8A
:011038002E89
:011039002E88
:01103A002E87
:01103B002E86
:01103C002E85
:01103D002E84
:01103E002D84
:01103F002D83
:011040002D82
:011041002C82
:011042002C81
:011043002C80
:011044002C7F
:011045002C7E
:011046002C7D
:011047002C7C
:011048002C7B
:011049002C7A
:01104A002C79
:01104B002C78
:01104C002D76
:01104D002D75
:01104E002E73
:01104F002E72
:011050002E71
:011051002E70
:011052002E6F
:011053002E6E
:011054002E6D
:011055002E6C
:011056003168
:011057003167
:011058003166
:011059003165
:01105A003164
:01105B003163
:01105C003360
:01105D00335F
:01105E00335E
:01105F00345C
:01106000345B
:01106100345A
:011062003459
:011063003458
:011064003457
:011065003456
:011066003752
:011067003751
:011068003750
:01106900374F
:01106A00374E
:01106B00374D
:01106C00374C
:01106D00374B
:01106E00374A
:01106F003749
:011070003748
:011071003747
:011072003746
:011073003745
:011074003744
:011075003743
:011076003742
:011077003741
:011078003A3D
:011079003A3C
:01107A003D38
:01107B003E36
:01107C004033
:01107D004131
:01107E00442D
:01107F00442C
:01108000442B
:01108100442A
:011082004429
:011083004428
:011084004427
:011085004426
:011086004425
:011087004424
:011088004423
:011089004422
:01108A004421
:01108B004420
:01108C00441F
:01108D00441E
:01108E00441D
:01108F00441C
:01109000441B
:01109100431B
:01109200411C
:01109300411B
:011094003F1C
:011095003A20
:011096003A1F
:011097003A1E
:01109800391E
:01109900391D
:01109A00391C
:01109B00391B
:01109C00391A
:01109D003919
:01109E003918
:01109F003917
:0110A0003817
:0110A1003816
:0110A2003815
:0110A3003814
:0110A400311A
:0110A5003119
:0110A6003118
:0110A7003117
:0110A8003116
:0110A9003115
:0110AA003114
:0110AB003113
:0110AC003112
:0110AD003111
:0110AE003110
:0110AF00310F
:0110B000310E
:0110B100320C
:0110B200320B
:0110B300320A
:0110B4003209
:0110B5003208
:0110B6003207
:0110B7003305
:0110B8003700
:0110B90037FF
:0110BA0037FE
:0110BB0037FD
:0110BC0037FC
:0110BD0037FB
:0110BE0037FA
:0110BF0037F9
:0110C00037F8
:0110C10037F7
:0110C20037F6
:0110C30037F5
:0110C40037F4
:0110C50037F3
:0110C60037F2
:0110C70037F1
:0110C80037F0
:0110C90037EF
:0110CA0037EE
:0110CB0037ED
:0110CC0035EE
:0110CD0035ED
:0110CE0035EC
:0110CF0035EB
:0110D00035EA
:0110D10035E9
:0110D20035E8
:0110D30035E7
:0110D40035E6
:0110D50035E5
:0110D60035E4
:0110D70035E3
:0110D80035E2
:0110D90035E1
:0110DA0035E0
:0110DB0035DF
:0110DC0035DE
:0110DD0034DE
:0110DE0030E1
:0110DF0033DD
:0110E00033DC
:0110E10033DB
:0110E20034D9
:0110E30034D8
:0110E40034D7
:0110E50034D6
:0110E60034D5
:0110E70034D4
:0110E80034D3
:0110E90034D2
:0110EA0034D1
:0110EB0034D0
:0110EC0034CF
:0110ED0034CE
:0110EE0034CD
:0110EF0034CC
:0110F00034CB
:0110F10034CA
:0110F20034C9
:0110F30034C8
:0110F40034C7
:0110F50031C9
:0110F60030C9
:0110F70030C8
:0110F80030C7
:0110F9002DC9
:0110FA002DC8
:0110FB002DC7
:0110FC002DC6
:0110FD002CC6
:0110FE002CC5
:0110FF002CC4
:011100002CC2
:011101002BC2
:011102002BC1
:011103002AC1
:011104002AC0
:0111050028C1
:0111060028C0
:0111070028BF
:0111080028BE
:0111090028BD
:01110A0028BC
:01110B0028BB
:01110C0028BA
:01110D0028B9
:01110E0028B8
:01110F0028B7
:0111100028B6
:0111110028B5
:0111120028B4
:0111130028B3
:0111140028B2
:0111150028B1
:0111160028B0
:0111170028AF
:0111180028AE
:0111190028AD
:01111A0023B1
:01111B0023B0
:01111C0023AF
:01111D0023AE
:01111E0023AD
:01111F0023AC
:0111200023AB
:0111210023AA
:0111220023A9
:0111230023A8
:0111240023A7
:0111250023A6
:0111260023A5
:0111270022A5
:0111280022A4
:0111290022A3
:01112A0022A2
:01112B0022A1
:01112C0022A0
:01112D00229F
:01112E00229E
:01112F00229D
:01113000229C
:01113100229B
:01113200229A
:011133002299
:011134001F9B
:011135001F9A
:011136001F99
:011137001F98
:011138001F97
:011139001E97
:01113A001E96
:01113B001E95
:01113C001E94
:01113D001E93
:01113E001E92
:01113F001E91
:011140001E90
:011141001E8F
:011142001C90
:011143001C8F
:011144001C8E
:011145001C8D
:011146001C8C
:011147001C8B
:011148001C8A
:011149001B8A
:01114A001B89
:01114B001B88
:01114C001B87
:01114D001B86
:01114E001B85
:01114F001B84
:011150001B83
:011151001B82
:011152001B81
:011153001B80
:011154001B7F
:011155001B7E
:011156001B7D
:011157001B7C
:011158001B7B
:011159001B7A
:01115A001B79
:01115B001B78
:01115C001C76
:01115D001C75
:01115E001C74
:01115F001C73
:011160001C72
:011161001C71
:011162001C70
:011163001C6F
:011164001C6E
:011165001C6D
:011166001C6C
:011167001C6B
:011168001C6A
:011169001C69
:01116A001C68
:01116B001C67
:01116C001E64
:01116D001E63
:01116E001E62
:01116F001E61
:011170001E60
:011171001E5F
:011172001E5E
:011173001E5D
:011174001E5C
:011175001E5B
:011176001F59
:011177002057
:011178002056
:011179002055
:01117A002351
:01117B002350
:01117C00244E
:01117D00254C
:01117E00254B
:01117F00254A
:011180002549
:011181002548
:011182002547
:011183002744
:011184002842
:011185002841
:011186002840
:011187002B3C
:011188002B3B
:011189002B3A
:01118A002B39
:01118B002B38
:01118C002C36
:01118D003031
:01118E00322E
:01118F00322D
:01119000332B
:011191003528
:011192003725
:011193003724
:011194003A20
:011195003A1F
:011196003D1B
:011197003E19
:011198004016
:011199004114
:01119A004410
:01119B00440F
:01119C00440E
:01119D00440D
:01119E00440C
:01119F00440B
:0111A000440A
:0111A1004409
:0111A2004408
:0111A3004407
:0111A4004406
:0111A5004405
:0111A6004404
:0111A7004403
:0111A8004402
:0111A9004401
:0111AA004400
:0111AB0044FF
:0111AC0044FE
:0111AD0043FE
:0111AE0041FF
:0111AF0041FE
:0111B0003FFF
:0111B1003A03
:0111B2003A02
:0111B3003A01
:0111B4003901
:0111B5003900
:0111B60039FF
:0111B70039FE
:0111B80039FD
:0111B90039FC
:0111BA0039FB
:0111BB0039FA
:0111BC0038FA
:0111BD0038F9
:0111BE0038F8
:0111BF0038F7
:0111C00035F9
:0111C10035F8
:0111C20035F7
:0111C30035F6
:0111C40035F5
:0111C50035F4
:0111C60035F3
:0111C70035F2
:0111C80035F1
:0111C90035F0
:0111CA0035EF
:0111CB0035EE
:0111CC0035ED
:0111CD0035EC
:0111CE0035EB
:0111CF0035EA
:0111D00032EC
:0111D10032EB
:0111D20032EA
:0111D30033E8
:0111D40037E3
:0111D50037E2
:0111D60037E1
:0111D70037E0
:0111D80037DF
:0111D90037DE
:0111DA0037DD
